:1004D100C100410002004100030041000100410050
:0604E100000041000400D0
:100528005389F0438901758ABF758CFCD28CD2A996
:03053800D2AF221D
:03000B0002043DAF
:10043D00C0E0C083C082C0D075D008900002E0D368
:10044D0094004018E014F0E07012900001E0FF906D
:10045D000003E06F60069000007401F0758ABF75AF
:0B046D008CFCD0D0D082D083D0E032D5
:09056000D2BAD28AD2AAD2AF228B
:0300130002053BA8
:10053B00C0E0C083C0829000047401F0D082D083ED
:03054B00D0E032CB
:1004E80075985053890F438920758BFE758DFED200
:0604F8008ED2ACD2AF224F
:10054E00740112006C120026C394644004E412007D
:02055E008E22EB
:0300230002039F36
:0B039F00C0E0C083C082C0D075D00851
:1003AA00309835C298AF99900003E0240DF582E4A5
:1003BA003400F583EFF07B017A00790312054E9041
:1003CA000001E0FF900003E0B50F077A00790112FF
:0F03DA00054E9000027414F0309904C299C200CD
:0903E900D0D0D082D083D0E032E4
:080003002000FDD2008F9922BC
:1003F200900072EBF0A3EAF0A3E9F0A3ECF0FEA305
:03040200EDF0FF1B
:10040500E4FDFCD3EF9400EE9400402B900072E0E5
:10041500FBA3E0FAA3E0F90DEDAE0470010C14F5B1
:10042500828E8312003FFF120003D3900076E09D79
:07043500900075E09C50D51A
:01043C00229D
:10027B00E4900072F0900003E0FDFE900001E0FCC2
:10028B00EDC39C500474642EFEC3EE9CFDC3940816
:10029B0040089000727408F08012900000E0640136
:1002AB007046900072EDF0E4900000F0E4FF9000D7
:1002BB0072E0FDEFC39D5027900001E0240DF58205
:1002CB00E43400F583E0FE74732FF582E43400F51B
:1002DB0083EEF07B017A00790112054E0F80CF7B04
:0802EB00017A0079731200C2D0
:0102F30022E8
:1002F4001205281204E812056012015A900001E068
:10030400FF900003E06F600512027B8009900000FB
:10031400E0B40102E4F0900004E064016005E5B09B
:0303240020E3D9FA
:10032700E4900004F07B017A00790512034B9000FA
:1003370071EFF060DE7B017A007905E0FD7C001249
:0203470003F2BF
:0203490080CF63
:10049900D3EF9400EE94004015E4FDFC0DBD00017E
:0E04A9000CED64644C70F5EF1F70E51E80E2F0
:0104B7002222
:1004B800E4FFC2A3FED2A3EF25E0FFA2A1E4334FDD
:0804C800FFC2A30EEEB408ED23
:0104D0002209
:10047800E4FEC2A3EFA806088002C333D8FC30E725
:1004880004D2A28002C2A2D2A30EEEB408E4C2A390
:010498002241
:1004FE00AC07C2A07F02120478AF04120478AF05D5
:06050E00120478D2A022C5
:02051400AD0731
:10051600C2A07F03120478AF051204781204B8D281
:01052600A034
:0105270022B1
:0A001600C2A07FC0120478D2A0221D
:10015A00E4FF1200167F017E001204997D037F2AB4
:10016A001204FE7D907F291204FE7D027F2812046C
:10017A00FE7DFF7F311204FE7DE07F321204FEE431
:10018A00FD7F611204FE7F621204FE7D207F6012F1
:10019A0004FE7D087F651204FE7DFFE4FF1204FE63
:1001AA007DE07F011204FE7DFF7F201204FE7DE0C8
:1001BA007F211204FEE4FD7F2C1204FE0D7F2B1218
:1001CA0004FE7D447F0F1204FE7F0E120514EF7E9B
:1001DA000060047F0180027F00EF4E60077D447F4C
:0401EA000F1204FEEE
:0101EE0022EE
:0E00C20090007BEBF0A3EAF0A3E9F0A3EDF0D1
:1000D000E4900080F090007EE0FF900080E0C39FFD
:1000E0005077E4FB7F30120514EF30E310EBC3943C
:1000F00032500A7F017E001204990B80E7E49000E1
:100100007FF090007FE0FFC394085035EF2436FF66
:1001100090007BE0FBA3E0FAA3E0F9900080E0FE12
:1001200004F08E8275830012003FFD1204FE9000E1
:100130007FE004F090007EE0FF900080E0C39F40ED
:10014000C190007FE0FD7F351204FEC2A07D087FD4
:09015000301204FED2A00200D519
:010159002283
:0B034B00900072EBF0A3EAF0A3E9F0D1
:10035600E4FCA3F07F2C120514EF30E02F7F65122A
:100366000514EFF0900075E0FFECC39F501EEC24DF
:1003760066FF120514900072E0FBA3E0FAA3E0F911
:100386008C82758300EF1200A00C80D8E4FD7F2CD0
:080396001204FE900075E0FF67
:01039E00223C
:030000000201EF0B
:0C01EF00787FE4F6D8FD7581200202360E
:10002600BB010689828A83E0225002E722BBFE02D8
:09003600E32289828A83E493220B
:10003F00BB010CE58229F582E5833AF583E0225076
:10004F0006E92582F8E622BBFE06E92582F8E222C0
:0D005F00E58229F582E5833AF583E49322DA
:10006C00BB010989828A83F8E028F022500327F724
:10007C0022BBFE05F8E328F3228A838982F8E493F5
:02008C00282228
:10008E00BB010689828A83F0225002F722BBFE0151
:02009E00F3224B
:1000A000F8BB010DE58229F582E5833AF583E8F096
:1000B000225006E92582C8F622BBFE05E92582C842
:0200C000F2222A
:1001FB000202F4E493A3F8E493A34003F68001F224
:10020B0008DFF48029E493A3F85407240CC8C33304
:10021B00C4540F4420C8834004F456800146F6DFD3
:10022B00E4800B01020408102040809004D1E47E8E
:10023B00019360BCA3FF543F30E509541FFEE493C8
:10024B00A360010ECF54C025E060A840B8E493A38F
:10025B00FAE493A3F8E493A3C8C582C8CAC583CABA
:10026B00F0A3C8C582C8CAC583CADFE9DEE780BE72
:0104E7000014
:00000001FF
