:08367E004102650141026601F1
:0E3BC100900265E060FAE4900265F08F9922B0
:103B1700120674FF600C123BC1740129F9E43AFAEA
:033B270080EE220B
:0E3BCF00900266E060FAE4900266F08F9B229E
:103B2A00120674FF600C123BCF740129F9E43AFAC9
:033B3A0080EE22F8
:0636860043026201024E46
:103391009001C8EBF0A3EAF0A3E9F0900262740196
:1033A100F0A37402F0A3744EF09001C8E0FBA3E017
:1033B100FAA3E0F9C003C002C001900262E0FBA3DE
:1033C100E0FAA3E0F9120B17AF05900262E0FBA34C
:1033D100E0FAA3E0F9900003EC8FF01208459000A9
:1033E10005E4F5F0120845900007E41206FF90008D
:0C33F10008E41206FF900013E40206FF3F
:10331E00900262E0FBA3E0FAA3E0F990000312072B
:10332E00A1FFAEF09000051207A1C39FE5F09E40ED
:10333E000E900007E41206FF900008E40206FF90CC
:10334E000262E0FBA3E0FAA3E0F990000774011219
:10335E0006FF9000051207A1FFAEF0120AF78F824A
:10336E008E8312068DFF900262E0FBA3E0FAA3E0CB
:10337E00F9900008EF1206FF900005E475F00112B7
:03338E0007D9223A
:1033FD00900262E0FBA3E0FAA3E0F990000512074A
:10340D00A1D39400E5F09400900007500AE4120651
:10341D00FF900008E4803274011206FF90000574DD
:10342D00FFF5F01207D99000051207A1FFAEF012BB
:10343D000AF78F828E8312068DFF900262E0FBA346
:0D344D00E0FAA3E0F9900008EF1206FF225C
:0B321B009001D2EBF0A3EAF0A3E9F071
:10322600E4FDFC9001D2E0FBA3E0FAA3E0F98D8275
:103236008C8312068D606012331E900262E0FBA33F
:10324600E0FAA3E0F990000712068D604A9001D2D9
:10325600E0FBA3E0FAA3E0F98D828C8312068DFFD2
:10326600900262E0FBA3E0FAA3E0F99000081206E0
:103276008D6F601C1233FD900262E0FBA3E0FAA39F
:10328600E0F9900007E41206FF900008E40206FF4A
:073296000DBD00010C808C4E
:01329D00220E
:102E58009001D4120A8200000000E49001D2F0A38D
:102E6800F012331E900262E0FBA3E0FAA3E0F990AF
:102E7800000812068DFFC394304070EFD394395088
:102E88006A9001D4E0FCA3E0FDA3E0FEA3E0FFE428
:102E98007B0AFAF9F81208729001D4120A769001A6
:102EA800D4E0F8A3E0F9A3E0FAA3E0FBC000C00176
:102EB800C002C003900262E0FBA3E0FAA3E0F9902D
:102EC800000812068D24D0FFE434FFFEE4FCFDD098
:102ED80003D002D001D000EB2FFFEA3EFEED39FD12
:102EE800EC38FC9001D4120A7680051233FD801468
:102EF8009001D3E004F06003022E699001D2E0044F
:102F0800F0022E699001D4E0FCA3E0FDA3E0FEA34B
:022F1800E0FFD8
:012F1A002294
:0B3100009001D2EBF0A3EAF0A3E9F08D
:10310B00900262E0FBA3E0FAA3E0F990000512073E
:10311B00A1FF9001D5E5F0F0A3EFF012331E900262
:10312B0062E0FBA3E0FAA3E0F990000712068D60C2
:10313B004AE4FCFD9001D2E0FBA3E0FAA3E0F98D99
:10314B00828C8312068DFF601B900262E0FBA3E072
:10315B00FAA3E0F990000812068D6F60070DBD0011
:10316B00010C80D09001D2E0FBA3E0FAA3E0F98D33
:10317B00828C8312068D70A31233FD9001D5E0FE75
:03318B00A3E0FFBF
:01318E00221E
:1034B300900262E0FBA3E0FAA3E0F9900005120793
:1034C300A1FFAEF0E92409F9E43AFAC002C0019081
:1034D3000262A3E0FAA3E0F990001312068D75F0DF
:1034E30002A4F58285F083D001D002EE8FF012089A
:1034F30045900262E0FBA3E0FAA3E0F990001374A5
:04350300010206BA01
:10345A00900262E0FBA3E0FAA3E0F990001374FF84
:10346A001206BAE92409F9E43AFAC003C002C00113
:10347A00900262E0FBA3E0FAA3E0F99000131206BF
:10348A008D75F002A4F58285F083D001D002D003B5
:10349A001207A1FF900262E0FBA3E0FAA3E0F99011
:0934AA000005E5F08FF002084571
:102C8C009001D2EBF0A3EAF0A3E9F0A3E0FBA3E000
:102C9C00FAA3E0F974011206ED9001D5E0FBA3E074
:102CAC00FAA3E0F990000174011206FF9001DCE038
:102CBC0024FEFF9001DBE034FFFE9001D2E0FBA389
:102CCC00E0FAA3E02402F9E43AFAC003C002C0011E
:102CDC00A3E0FBA3E0FAA3E02402F9E43AA801FC88
:102CEC00AD03D001D002D00312064E9001D5E0FB0B
:102CFC00A3E0FAA3E0F9E41206ED9001D8E0FBA3FF
:102D0C00E0FAA3E0F974011206ED9001D8E0FBA300
:102D1C00E0FAA3E0F990000174011206FF9001DCC7
:102D2C00E024FEFF9001DBE034FFFE9001D2E0FBDB
:102D3C00A3E0FAA3E02402F9E43AFAC003C002C00B
:102D4C00019001D8E0FBA3E0FAA3E02402F9E43AF5
:102D5C00A801FCAD03D001D002D00312064E9001A5
:0D2D6C00D8E0FBA3E0FAA3E0F9E40206EDD5
:102FC8009001B1EBF0A3EAF0A3E9F09001B1E0FBC6
:102FD800A3E0FAA3E0F9120674703E90000112060D
:102FE8008D60369001BAE0FEA3E0FF9001B7E0FBE8
:102FF800A3E0FAA3E0F8AC02AD039001B1E0FBA3B3
:10300800E0FAA3E012064E9001B1E0FBA3E0FAA3B8
:10301800E0F9900001E41206FF9001B4E0FBA3E0A0
:10302800FAA3E0F9120674703E90000112068D6052
:10303800369001BAE0FEA3E0FF9001B7E0FBA3E001
:10304800FAA3E0F8AC02AD039001B4E0FBA3E0FA08
:10305800A3E012064E9001B4E0FBA3E0FAA3E0F966
:08306800900001E41206FF22B2
:103999009001CFEBF0A3EAF0A3E9F07E007F1B7D55
:1039A90000120B8C9001CFE0FBA3E0FAA3E0F990A1
:0739B900000974010206FF82
:102B9A009001D4EBF0A3EAF0A3E9F09001D4E0FBB2
:102BAA00A3E0FAA3E0F91206746017900001120A72
:102BBA0008900005120A52900009E41206FFE41276
:102BCA0006ED9001D4E0FBA3E0FAA3E0F99000053A
:102BDA00120A08E4FBFAF9F8C312099D7002804050
:102BEA009001D4E0FBA3E0FAA3E0F990000A1206F0
:102BFA008D7040900005120A08EF24FFFFEE34FFA3
:102C0A00FEED34FFFDEC34FFFC900005120A5290F1
:102C1A000005120A08E4FBFAF9F8C312099D7013B9
:102C2A009001D4E0FBA3E0FAA3E0F9900009740153
:102C3A001206FF9001D4E0FBA3E0FAA3E0F99000AA
:102C4A000B12068D7014900005120A0890000F12DC
:102C5A000A5290000D74011206FF9001D4E0FBA302
:102C6A00E0FAA3E0F990000C12068D7014900005AA
:102C7A00120A08900013120A5290000E74011206EA
:022C8A00FF2227
:10390F009001CFEBF0A3EAF0A3E9F0A3EDF0900163
:10391F00D3E0FF9001D2E06F60169001CFE0FBA3E0
:10392F00E0FAA3E0F9122B9A9001D2E004F080DEC6
:01393F002265
:10329E009001CB120A769001C8EBF0A3EAF0A3E9F5
:1032AE00F012067470699001CBE0FCA3E0FDA3E080
:1032BE00FEA3E0FF9001C8E0FBA3E0FAA3E0F990C3
:1032CE000001120A52E4FFFEFDFC9001CBE0F8A3D0
:1032DE00E0F9A3E0FAA3E0FBC312099D9001C860D8
:1032EE000EE0FBA3E0FAA3E0F9900009E4800DE004
:1032FE00FBA3E0FAA3E0F990000974011206FF9017
:10330E0001C8E0FBA3E0FAA3E0F974011206ED2276
:0A374900123A59123C057F0A7E0077
:08375300900202EEF0A3EFF07A
:10375B00E4A3F0A3F0900202E0FEA3E0FFC390020B
:10376B0005E09F900204E09E50157F32123AED90D7
:0F377B000205E004F070DE900204E004F080D656
:01378A00221C
:04001E007F03DFFE7F
:0100220022BB
:073C1C007F057E000238DC89
:0F3BA300D2C2D2C312001EC2C212001EC2C3225F
:0C3C0500C2C2D2C312001ED2C202001EB6
:0E3BDD00A20092C2D2C312001EC2C302001E7A
:0D000E00D2C312001EA2C2C2C312001E22E5
:053A5400123BA37FEE10
:023A5900AE07B6
:103A5B00E4FDEE25E0FE92C2D2C312001EC2C312D9
:0A3A6B00001E0DEDB408EB02000E82
:103A7500E4FED2C2FDEE25E0FED2C312001EA2C2B4
:103A8500E4334EFEC2C312001E0DEDB408E7AF06C7
:013A9500220E
:0237CC00AC0748
:1037CE00123A54AF04123A59123BA37FEF123A59F0
:1037DE00123A75900202EFF0C200123BDD123A75FA
:1037EE00A3EFF0D200123BDD123C05123C1C9002FE
:0837FE0002E0FEA3E0FDEDFF77
:01380600229F
:103AD400123A547FF4123A597F2E1237497FF61264
:093AE40037CCEE3395E0FDFC2225
:103AB6007F007E007D007C00123A547FF4123A5952
:0D3AC6007F341237497FF61237CCE4FDFC47
:013AD30022D0
:103070007FAA1237CC900242EEF0A3EFF07FAC12A1
:1030800037CC900244EEF0A3EFF07FAE1237CC9035
:103090000246EEF0A3EFF07FB01237CC900248EE7C
:1030A000F0A3EFF07FB21237CC90024AEEF0A3EF1C
:1030B000F07FB41237CC90024CEEF0A3EFF07FB665
:1030C0001237CC900234EEF0A3EFF07FB81237CC79
:1030D000900236EEF0A3EFF07FBA1237CC90023CAC
:1030E000EEF0A3EFF07FBC1237CC90023EEEF0A3DF
:1030F000EFF07FBE1237CC900240EEF0A3EFF0224B
:10117600123AD49001D2120A76123AD49001D212BF
:101186000A76123AB69001D6120A76123AB690014B
:10119600D6120A7690024CE0FEA3E0FBAA06900166
:1011A600D2E0FCA3E0FDA3E0FEA3E0C39BFBEE9A26
:1011B600FAED9400F9EC9400F890024AE0FEA3E000
:1011C600FFE4FCFD120872780F1209C19001DA12D1
:1011D6000A7690023EE0FEA3E0FFEE3395E0FDFCCA
:1011E600780B1209D5C004C005C006C007A3E0FEEF
:1011F600A3E0FFEE3395E0FDFC9001DAE0F8A3E012
:10120600F9A3E0FAA3E02FFBEA3EFAE93DF9E83C50
:10121600F8D007D006D005D0041236C29001DE12EF
:101226000A769001DEE0FCA3E0FDA3E0FEA3E0FF6A
:101236009001DAE0F8A3E0F9A3E0FAA3E02FFFEAD1
:101246003EFEE93DFDE83CFC9001E2120A76900183
:10125600E2E0FCA3E0FDA3E0FEA3E02408FFE43EF9
:10126600FEE43DFDE43CFC78041209C1900238120C
:101276000A769001E2E0FCA3E0FDA3E0FEA3E024F1
:1012860060FFEE34F0FEED34FFFDEC34FFFCA312FC
:101296000A769001E6E0FCA3E0FDA3E0FEA3E0FFF2
:1012A600A804A905AA06FB120872780C1209C1A89F
:1012B60004A905AA06AB07900236E0FEA3E0FFEEFE
:1012C6003395E0FDFC120872780B1209C19001DA21
:1012D600120A76900244E0FEA3E0FFEE3395E0FDAD
:1012E600FC9001E6E0F8A3E0F9A3E0FAA3E0FB1224
:1012F6000872780B1209C19001DE120A769001DE9F
:10130600E0FCA3E0FDA3E0FEA3E0FF9001DAE0F835
:10131600A3E0F9A3E0FAA3E02FFFEA3EFEE93DFDD4
:10132600E83CFC9001EA120A76900242E0FEA3E055
:10133600FFEE3395E0FDFCE47B04FAF9F81208723F
:101346009001EAE0F8A3E0F9A3E0FAA3E02FFFEAB0
:101356003EFEE93DFDE83CFCEF2402FFE43EFEE4F0
:101366003DFDE43CFCE47B04FAF9F81236C2900138
:10137600EE120A76900246E0FEA3E0FFEE3395E019
:10138600FDFC9001E6E0F8A3E0F9A3E0FAA3E0FB98
:10139600120872780D1209C19001DA120A769001CC
:1013A600E6E0FCA3E0FDA3E0FEA3E0FF9001E6E09B
:1013B600F8A3E0F9A3E0FAA3E0FB120872780C1296
:1013C60009C1A804A905AA06AB07900234E0FEA34A
:1013D600E0FFEE3395E0FDFC12087278101209C1A9
:1013E6009001DE120A769001DEE0FCA3E0FDA3E0A8
:1013F600FEA3E0FF9001DAE0F8A3E0F9A3E0FAA388
:10140600E02FFFEA3EFEE93DFDE83CFCEF2402FF4B
:10141600E43EFEE43DFDE43CFC78021209C1900185
:10142600EA120A769001EAE0FCA3E0FDA3E0FEA33F
:10143600E02400FFEE3480FEE43DFDE43CAB07AA69
:1014460006A905F8900248E0FEA3E0FFE4FCFD12C1
:101456000872780F1209AE9001F6120A769001D63C
:10146600E0FCA3E0FDA3E0FEA3E0FFC004C005C0CE
:1014760006C0079001EEE0FCA3E0FDA3E0FEA3E0BA
:10148600FBAA06A905A804D007D006D005D004C338
:10149600EF9BFFEE9AFEED99FDEC98FCE47B507A0B
:1014A600C3F9F81208729001FA120A76E4FFFEFDFB
:1014B6007C809001FAE0F8A3E0F9A3E0FAA3E0FB50
:1014C600C312099D5025E47F02FEFDFC9001FAE05F
:1014D600F8A3A3A3E01208729001F6E0F8A3E0F9DE
:1014E600A3E0FAA3E0FB1208FD80269001F6E0F8DF
:1014F600A3E0F9A3E0FAA3E0FBA3E0FCA3E0FDA3CD
:10150600E0FEA3E0FF1208FDE47B02FAF9F81208F8
:10151600729001F2120A769001F2E0FCA3E0FDA3BC
:10152600E0FEA3E0FF78081209C1C004C005C006AA
:10153600C0079001F2E0FCA3E0FDA3E0FEA3E0FFFC
:1015460078081209C1D003D002D001D00012087267
:101556009001DA120A76E47FDE7E0BFDFC9001DA5A
:10156600E0F8A3E0F9A3E0FAA3E0FB120872781012
:101576001209C19001DA120A767F437EE37DFF7C71
:10158600FF9001F2E0F8A3E0F9A3E0FAA3E0FB1272
:10159600087278101209C19001DE120A769001DEF7
:1015A600E0FCA3E0FDA3E0FEA3E0FF9001DAE0F893
:1015B600A3E0F9A3E0FAA3E02FFFEA3EFEE93DFD32
:1015C600E83CFCEF24CFFFEE340EFEE43DFDE43CA8
:1015D600FC78041209C19001F2E0F8A3E0F9A3E057
:1015E600FAA3E02FFFEA3EFEE93DFDE83CFC900150
:0A15F600FE120A76900230020A7617
:103AED00EFFD7C00E4FF0FEFB405FBED1D70011C35
:043AFD00ED4C70F02C
:013B010022A1
:103B0200AE07AF061EEF600C7FF5123AED7FF5129D
:053B12003AED80EE22F7
:0438DC00AB07AA0686
:1038E0007C007DFB120721900204EFF0AE02AF03D3
:1038F0007C007DFB120721AB05900204E0FF14F071
:0F390000EF60077FFB123B0280EFAF03023B0239
:102D790041544348532B0020004552522E20746F72
:102D89006F206C61726765206368206E756D2E0D0A
:102D99000A002C004552522E206578706563742014
:102DA9007370656564206E756D2E0D0A004552526B
:102DB9002E207370656564206E756D206F757420A3
:102DC9006F662072616E67652E0D0A007C004552A0
:102DD900522E2065787065637420636865636B2083
:102DE9006E756D2E0D0A004F4B0D0A004154434874
:102DF900412B00415441534B2B004552522E207414
:102E09006F6F206C61726765206E756D2E0D0A00FB
:102E19004F4B2E2025662C25662C25662C25660D04
:102E29000A0041545052532B004F4B2E20256C64FD
:102E39002C256C640D0A004552522E20756E6B6E5E
:0F2E49006F776E0D0A001388138813881388287B
:10368C0042012B00004200FC00004200FE00004200
:10369C000100000042010200004200020000410152
:1036AC0024004200140000420000000042001600FA
:0136BC00000D
:102F1B009001CFEBF0A3EAF0A3E9F07E007F027DF6
:102F2B00009001CFE0FBA3E0FAA3E0F9120B8C9029
:102F3B0001CFE0FBA3E0FAA3E0F9900002E4120654
:102F4B00FF7E007F0C7D00E92403F9E43AFA120BB3
:102F5B008C7E007F0D7D009001CFE0FBA3E0FAA3F8
:102F6B00E0240FF9E43AFA120B8C9001CFE0FBA3AB
:102F7B00E0FAA3E0F990001C120AB30000000090E5
:102F8B000020120AB300000000900024740275F0B8
:102F9B00801208457E007F127D00E92426F9E43A71
:102FAB00FA120B8C7E007F037D009001CFE0FBA318
:0D2FBB00E0FAA3E02438F9E43AFA020B8CA6
:10363900E41206ED9000011206FF900002E4120662
:10364900FF900003120AB300000000900007E41283
:1036590006FF900008E41206FF900009E41206FF35
:1036690090000AE41206FF90000BE41206FF900096
:053679000CE40206FF55
:10380700E41206ED9000011206FF900002740275A3
:10381700F0BC120845900004740275F0BC1208450C
:10382700900006740275F0BC1208459000087402F7
:0638370075F0BC0208451B
:100046009001CFEBF0A3EAF0A3E9F09001CFE0FB3B
:10005600A3E0FAA3E0F9E41206ED9001CFE0FBA3DA
:10006600E0FAA3E0F9900001E41206FF7E007F1992
:100076007D00E92402F9E43AFA120B8C7E007F1225
:100086007D009001CFE0FBA3E0FAA3E0241BF9E496
:050096003AFA020B8C98
:0B1A83009001B1EBF0A3EAF0A3E9F042
:101A8E00120776FFAEF0E5F06003021B2DEF14B4E3
:101A9E0028004003021B2D901AB375F003A4C583D2
:101AAE0025F0C58373021B3F021B51021B63021BF1
:101ABE0075021B87021B99021BAB021BBD021BCFBB
:101ACE00021BE1021BF3021C05021C17021C290259
:101ADE001C3B021C4D021C5F021C71021C83021C6B
:101AEE0095021CA7021CB9021CCB021CDD021CEFC6
:101AFE00021D01021D13021D25021D37021D490282
:101B0E001D5B021D6D021D7E021D8F021DA0021D9A
:101B1E00B1021DC2021DD3021DE4021DF6802490E7
:101B2E0001B1E0FBA3E0FAA3E0F9E475F001021DB8
:101B3E00F39001B1E0FBA3E0FAA3E0F9E475F00243
:101B4E00021DF39001B1E0FBA3E0FAA3E0F9E47506
:101B5E00F003021DF39001B1E0FBA3E0FAA3E0F95C
:101B6E00E475F004021DF39001B1E0FBA3E0FAA3CB
:101B7E00E0F9E475F005021DF39001B1E0FBA3E07E
:101B8E00FAA3E0F9E475F006021DF39001B1E0FB53
:101B9E00A3E0FAA3E0F9E475F007021DF39001B19A
:101BAE00E0FBA3E0FAA3E0F9E475F008021DF39060
:101BBE0001B1E0FBA3E0FAA3E0F9E475F009021D20
:101BCE00F39001B1E0FBA3E0FAA3E0F9E475F00AAB
:101BDE00021DF39001B1E0FBA3E0FAA3E0F9E47576
:101BEE00F00B021DF39001B1E0FBA3E0FAA3E0F9C4
:101BFE00E475F00C021DF39001B1E0FBA3E0FAA333
:101C0E00E0F9E475F00D021DF39001B1E0FBA3E0E5
:101C1E00FAA3E0F9E475F00E021DF39001B1E0FBBA
:101C2E00A3E0FAA3E0F9E475F00F021DF39001B101
:101C3E00E0FBA3E0FAA3E0F9E475F010021DF390C7
:101C4E0001B1E0FBA3E0FAA3E0F9E475F011021D87
:101C5E00F39001B1E0FBA3E0FAA3E0F9E475F01212
:101C6E00021DF39001B1E0FBA3E0FAA3E0F9E475E5
:101C7E00F013021DF39001B1E0FBA3E0FAA3E0F92B
:101C8E00E475F014021DF39001B1E0FBA3E0FAA39A
:101C9E00E0F9E475F015021DF39001B1E0FBA3E04D
:101CAE00FAA3E0F9E475F016021DF39001B1E0FB22
:101CBE00A3E0FAA3E0F9E475F017021DF39001B169
:101CCE00E0FBA3E0FAA3E0F9E475F018021DF3902F
:101CDE0001B1E0FBA3E0FAA3E0F9E475F019021DEF
:101CEE00F39001B1E0FBA3E0FAA3E0F9E475F01A7A
:101CFE00021DF39001B1E0FBA3E0FAA3E0F9E47555
:101D0E00F01B021DF39001B1E0FBA3E0FAA3E0F992
:101D1E00E475F01C021DF39001B1E0FBA3E0FAA301
:101D2E00E0F9E475F01D021DF39001B1E0FBA3E0B4
:101D3E00FAA3E0F9E475F01E021DF39001B1E0FB89
:101D4E00A3E0FAA3E0F9E475F01F021DF39001B1D0
:101D5E00E0FBA3E0FAA3E0F9E475F020021DF39096
:101D6E0001B1E0FBA3E0FAA3E0F9E475F021807580
:101D7E009001B1E0FBA3E0FAA3E0F9E475F0228054
:101D8E00649001B1E0FBA3E0FAA3E0F9E475F0235F
:101D9E0080539001B1E0FBA3E0FAA3E0F9E475F003
:101DAE002480429001B1E0FBA3E0FAA3E0F9E475D0
:101DBE00F02580319001B1E0FBA3E0FAA3E0F9E455
:101DCE0075F02680209001B1E0FBA3E0FAA3E0F9C4
:101DDE00E475F027800F9001B1E0FBA3E0FAA3E0D9
:101DEE00F9E475F028020826900005E004F0021BC5
:011DFE002DB7
:0B2373009001AEEBF0A3EAF0A3E9F04C
:10237E00120776FFAEF0E5F0700DEF147003022435
:10238E003E1470030224BB9001647401F0A3740028
:10239E00F0A37438F090009C7401F0A37401F0A3C4
:1023AE007420F0900164E0FBA3E0FAA3E0F91207B9
:1023BE007625E0FFE5F033FEC3902E4F7401939F18
:1023CE00FFE4939EFEC3E49FFFE49EF990009CE021
:1023DE00FBA3E0FAA3E0C98FF0120826900164E097
:1023EE00FBA3E0FAA3E0F912077625E0FFE5F03350
:1023FE00FEC3902E4F7401939FFFE4939EFEC3E4A1
:10240E009FFFE49EF990009CE0FBA3E0FAA3E0C9D5
:10241E008FF0120826900120E0F58CA3E0F58A904B
:10242E0001AEE0FBA3E0FAA3E0F9E475F001807AD7
:10243E00D2867B017A01792B121A83900164E0FB1C
:10244E00A3E0FAA3E0F912077625E0FFE5F033FEEC
:10245E00C3E49FFFE49EF990009CE0FBA3E0FAA387
:10246E00E0C98FF0120826900120E0F58CA3E0F56C
:10247E008A9001B47401F0A37400F0A3742CF0A33D
:10248E007401F0A37400F0A37436F0A3E4F0A37407
:10249E000AF07B017A007922122FC89001AEE0FB80
:1024AE00A3E0FAA3E0F9E475F002020826C2860260
:0224BE0023EA0F
:0B2852009001BCEBF0A3EAF0A3E9F05A
:10285D00120776FFE5F0700DEF14700302291B14BB
:10286D0070030229659001677401F0A37400F0A351
:10287D00743AF09000A77401F0A37401F0A37422D0
:10288D00F0900167E0FBA3E0FAA3E0F912077625CB
:10289D00E0FFE5F033FEC3902E517401939FFFE4EA
:1028AD00939EFEC3E49FFFE49EF99000A7E0FBA377
:1028BD00E0FAA3E0C98FF0120826900167E0FBA3B0
:1028CD00E0FAA3E0F912077625E0FFE5F033FEC349
:1028DD00902E517401939FFFE4939EFEC3E49FFFDE
:1028ED00E49EF99000A7E0FBA3E0FAA3E0C98FF006
:1028FD00120826900122E0F58DA3E0F58B9001BC26
:10290D00E0FBA3E0FAA3E0F9E475F0018047D2877C
:10291D00900167E0FBA3E0FAA3E0F912077625E04A
:10292D00FFE5F033FEC3E49FFFE49EF99000A7E0BE
:10293D00FBA3E0FAA3E0C98FF0120826900122E074
:10294D00F58DA3E0F58B9001BCE0FBA3E0FAA3E0CD
:0D295D00F9E475F002020826C2870228C7BF
:0B296A009001BFEBF0A3EAF0A3E9F03E
:10297500120776FFE5F0700DEF147003022A331489
:102985007003022A7D90016A7401F0A37400F0A31C
:10299500743CF09000AA7401F0A37401F0A37425AF
:1029A500F090016AE0FBA3E0FAA3E0F912077625AF
:1029B500E0FFE5F033FEC3902E537401939FFFE4CF
:1029C500939EFEC3E49FFFE49EF99000AAE0FBA35B
:1029D500E0FAA3E0C98FF012082690016AE0FBA394
:1029E500E0FAA3E0F912077625E0FFE5F033FEC330
:1029F500902E537401939FFFE4939EFEC3E49FFFC3
:102A0500E49EF99000AAE0FBA3E0FAA3E0C98FF0E9
:102A1500120826900125E0F5D4A3E0F5D59001BF75
:102A2500E0FBA3E0FAA3E0F9E475F0018047D29357
:102A350090016AE0FBA3E0FAA3E0F912077625E02E
:102A4500FFE5F033FEC3E49FFFE49EF99000AAE0A2
:102A5500FBA3E0FAA3E0C98FF0120826900125E058
:102A6500F5D4A3E0F5D59001BFE0FBA3E0FAA3E020
:0D2A7500F9E475F002020826C2930229DF81
:0B2A82009001C2EBF0A3EAF0A3E9F022
:102A8D00120776FFE5F0700DEF147003022B4B1457
:102A9D007003022B9590016D7401F0A37400F0A3E7
:102AAD00743EF09000AD7401F0A37401F0A374298D
:102ABD00F090016DE0FBA3E0FAA3E0F91207762593
:102ACD00E0FFE5F033FEC3902E557401939FFFE4B4
:102ADD00939EFEC3E49FFFE49EF99000ADE0FBA33F
:102AED00E0FAA3E0C98FF012082690016DE0FBA378
:102AFD00E0FAA3E0F912077625E0FFE5F033FEC317
:102B0D00902E557401939FFFE4939EFEC3E49FFFA7
:102B1D00E49EF99000ADE0FBA3E0FAA3E0C98FF0CD
:102B2D00120826900129E0F5D2A3E0F5D39001C259
:102B3D00E0FBA3E0FAA3E0F9E475F0018047D2923F
:102B4D0090016DE0FBA3E0FAA3E0F912077625E012
:102B5D00FFE5F033FEC3E49FFFE49EF99000ADE086
:102B6D00FBA3E0FAA3E0C98FF0120826900129E03B
:102B7D00F5D2A3E0F5D39001C2E0FBA3E0FAA3E008
:0D2B8D00F9E475F002020826C292022AF750
:0B2724009001C5EBF0A3EAF0A3E9F080
:10272F00120776FFE5F07010EF14602824FE700397
:10273F000227D1047002803A900124E07005E00472
:10274F00F080119001C5E0FBA3E0FAA3E0F9E47576
:10275F00F001806B900170E599F0900170E0B44149
:10276F00D79001C5E0FBA3E0FAA3E0F9E475F0020E
:10277F00804D900170E599F0E0B454BC9000117455
:10278F0001F0A37400F0A37442F0E490011FF090E5
:10279F000011E0FBA3E0FAA3E0F990011F80647B36
:1027AF00017A0079B07F077E007D007C0012329E97
:1027BF009001C5E0FBA3E0FAA3E0F9E475F0030292
:1027CF000826900170E599F09000B9E0708C902E7A
:1027DF0057E493FF90011FE0FEC39F40030227477A
:1027EF00900170E0FF643B6026900011E0FBA3E0D6
:1027FF00FAA3E0F98E82758300EF1206FF90011F96
:10280F00E004F0E0F582758300E41206FF809090FB
:10281F000040E06003022747786D7C007D017B015B
:10282F007A007940FE7F2D12064E7B017A00796F78
:10283F0090011FE0FD7C001233919000407401F075
:03284F0002274716
:0B0C85009001CFEBF0A3EAF0A3E9F030
:100C9000120776FFAEF0900040E0700302115C1284
:100CA00034B374792402F9E4342DFA7BFF12321B39
:100CB000900262E0FBA3E0FAA3E0F99000071206BD
:100CC0008D7003020E0E7BFF7A2D79801231001297
:100CD0002E5890009AEEF0A3EFF07BFF7A2D7980EA
:100CE000123100D390009BE0940490009AE09400AD
:100CF00040097BFF7A2D79820211597BFF7A2D7989
:100D00009B12321B900262E0FBA3E0FAA3E0F99091
:100D1000000712068D70097BFF7A2D799D0211590B
:100D2000122E58900171EEF0A3EFF0C394BCEE9434
:100D300002400CD3E09434900171E0940840097BA8
:100D4000FF7A2D79B60211597BFF7A2D79D51232AF
:100D50001B900262E0FBA3E0FAA3E0F99000071207
:100D6000068D70097BFF7A2D79D7021159122E5802
:100D7000900127EEF0A3EFF090009AE07004A3E05A
:100D80006401700C900171E0FFA3E090001A8046AE
:100D900090009AE07004A3E06402700C900171E08E
:100DA000FFA3E090001C802E90009AE07004A3E066
:100DB0006403700C900171E0FFA3E090001E8016A8
:100DC00090009AE07004A3E064047039900171E02F
:100DD000FFA3E0900020CFF0A3EFF09001D57401C5
:100DE000F0A37400F0A37422F0A37401F0A37400C4
:100DF000F0A3742CF0A3E4F0A3740AF07B017A0052
:100E00007918122C8C7BFF7A2D79F002115912344B
:100E10005A1234B374F52402F9E4342DFA7BFF122C
:100E2000321B900262E0FBA3E0FAA3E0F990000716
:100E300012068D7003020F7BE4900127F0A3F012DD
:100E40002E58AD07AC06900128E025E0FF90012761
:100E5000E033FE749F2FF58274003EF583ECF0A31F
:100E6000EDF0749F2FF58274003EF583E0FEA3E061
:100E7000FFC394BCEE94024009D3EF9434EE94087F
:100E800040097BFF7A2D79B6021159900127E07055
:100E900004A3E0640360257BFF7A2D799B12321B4B
:100EA000900262E0FBA3E0FAA3E0F99000071206CB
:100EB0008D70097BFF7A2D799D021159900128E0F0
:100EC00004F07006900127E004F0C3900128E0943C
:100ED00004900127E094005003020E3F7BFF7A2D1F
:100EE00079D512321B900262E0FBA3E0FAA3E0F98D
:100EF00090000712068D70097BFF7A2D79D70211B9
:100F000059122E58900127EEF0A3EFF090009FE0C9
:100F1000FFA3E090001ACFF0A3EFF09000A1E0FF54
:100F2000A3E090001CCFF0A3EFF09000A3E0FFA39C
:100F3000E090001ECFF0A3EFF09000A5E0FFA3E04B
:100F4000900020CFF0A3EFF09001D57401F0A374CE
:100F500000F0A37422F0A37401F0A37400F0A37452
:100F60002CF0A3E4F0A3740AF07B017A0079181244
:100F70002C8C7BFF7A2D79F002115912345A1234DD
:100F8000B374FC2402F9E4342DFA7BFF12321B9077
:100F90000262E0FBA3E0FAA3E0F990000712068DDD
:100FA00070030210A5122E5890009AEEF0A3EFF0F5
:100FB000C39403EE940040097BFF7A2E790302115B
:100FC000597BFF7A2D79D512321B900262E0FBA388
:100FD000E0FAA3E0F990000712068D70097BFF7A12
:100FE0002D79D7021159122E58900127EEF0A3EF58
:100FF000F09001D574FFF0A3742EF0A37419F09053
:10100000009BE0C4F8540FC868FB90009AE0C454F9
:10101000F048FA74CB2BF58274003AF583E0FCA318
:10102000E0FDA3E0FEA3E0FF9001D8120A7674CFA2
:101030002BF58274003AF583E0FCA3E0FDA3E0FE0B
:10104000A3E0FF9001DC120A7690009BE0C4F85404
:101050000FC868FB90009AE0C454F048FA74D32B90
:10106000F58274003AF583E0FCA3E0FDA3E0FEA363
:10107000E0FF9001E0120A7674D72BF58274003AF3
:10108000F583E0FCA3E0FDA3E0FEA3E0FF9001E414
:10109000120A767B017A01792D1216657B017A019D
:1010A000792D02115912345A1234B3742B2402F9D7
:1010B000E4342EFA7BFF12321B900262E0FBA3E0C5
:1010C000FAA3E0F990000712068D70030211501286
:1010D0002E5890009AEEF0A3EFF07BFF7A2D79D591
:1010E00012321B900262E0FBA3E0FAA3E0F9900049
:1010F0000712068D70087BFF7A2D79D7805B122E40
:1011000058900127EEF0A3EFF09001D574FFF0A303
:10111000742EF0A37432F0900230E0FCA3E0FDA343
:10112000E0FEA3E0FF9001D8120A76900238E0FCBE
:10113000A3E0FDA3E0FEA3E0FF9001DC120A767BB2
:10114000017A01792D1216657B017A01792D8009CA
:1011500012345A7BFF7A2E7940123B17900040E000
:101160006002E4F09001CFE0FBA3E0FAA3E0F9E431
:0611700075F001020826E3
:0B24C0009001CFEBF0A3EAF0A3E9F0DD
:1024CB00120776FFAEF0E5F07011EF14606024FE9A
:1024DB0070030225DD04700302258B122049900244
:1024EB0015E0603890020FE0FBA3E0FAA3E0F912CD
:1024FB0009E89000CB120A76900004120A089000AB
:10250B00CF120A76900008120A089000D3120A76AE
:10251B0090000C120A089000D7120A769001CFE0B7
:10252B00FBA3E0FAA3E0F9E475F0010225EF121D1D
:10253B00FF900215E0603890020FE0FBA3E0FAA3D6
:10254B00E0F91209E89000DB120A76900004120AF7
:10255B00089000DF120A76900008120A089000E338
:10256B00120A7690000C120A089000E7120A769075
:10257B0001CFE0FBA3E0FAA3E0F9E475F00280647D
:10258B001221E1900215E0603890020FE0FBA3E00E
:10259B00FAA3E0F91209E89000EB120A7690000416
:1025AB00120A089000EF120A76900008120A08909F
:1025BB0000F3120A7690000C120A089000F7120A28
:1025CB00769001CFE0FBA3E0FAA3E0F9E475F0030A
:1025DB0080121211769001CFE0FBA3E0FAA3E0F991
:0725EB00E475F0040208266C
:10355800120776FFE5F07014EF14602024FE60284F
:1035680014602B14603024037002801690000CE065
:10357800602214F0D296E475F001801EE475F00222
:103588008018E475F0038012E475F004800CE4758B
:0D359800F0058006C296E475F006020826D4
:103B5000538E7F5389F0758AF0758CD8C28DD28CC4
:013B60002242
:103B6100538EBF53890F758BF0758DD8C28FD28E4E
:013B71002231
:0D3BEB0053D1FD75D5F075D4D843D1082213
:0D3BF80053D1DF75D3F075D2D843D18022B0
:103B3D00759850438E01538EFB75D7CC75D6FF43C8
:033B4D008E1022B5
:103B8300759A50538EFB75D7CC75D6FF438E102292
:1025F2007F0D780FEFF6F876150876A0C2AF123B82
:1026020050123B61123BEB123BF8D2A9D2AB43AF63
:102612002043AF40123B3DD2AC123B8343BA01751B
:10262200AF017B017A017973122F1B7B017A00794A
:10263200041236397A0079181238077A0079221290
:1026420038077A00792C1238077A0079361238075F
:102652007A0079401200467B017A00796D120046B9
:102662001235F01235A51230707B017A0079B01262
:1026720039997B017A0179041239997F2C7E0112F2
:1026820038DCD2AF7F4D7E011238DC9001D574FF69
:10269200F0A3742EF0A37432F0900230E0FCA3E0B9
:1026A200FDA3E0FEA3E0FF9001D8120A7690023863
:1026B200E0FCA3E0FDA3E0FEA3E0FF9001DC120A30
:1026C200767B017A01792D1216657B017A01792DCB
:1026D200123B177B017A007914120C857B017A0078
:1026E20079001224C07B017A0079B0900006E0FDE7
:1026F200900005E09001D3F012390F7B017A017945
:1027020004900006E0FD900005E09001D3F012393C
:102712000F900005E0A3F07B017A0079161235587C
:0227220080B184
:03000B0002378B2E
:10378B00C0E0C0F0C083C082C0D075D000C000C004
:10379B0001C002C003C004C005C006C0077B017A8C
:1037AB000079FC122373D007D006D005D004D003C8
:1037BB00D002D001D000D0D0D082D083D0F0D0E0D6
:0137CB0032CB
:03001B0002383D6B
:10383D00C0E0C0F0C083C082C0D075D000C001C050
:10384D0002C003C006C0077B017A0079FE12285220
:10385D00D007D006D003D002D001D0D0D082D083F3
:05386D00D0F0D0E032B4
:03009B00023872B6
:10387200C0E0C0F0C083C082C0D075D000C001C01B
:1038820002C003C006C0077B017A01790012296ACF
:10389200D007D006D003D002D001D0D0D082D083BE
:0538A200D0F0D0E0327F
:0300A3000238A779
:1038A700C0E0C0F0C083C082C0D075D000C001C0E6
:1038B70002C003C006C0077B017A017902122A827F
:1038C700D007D006D003D002D001D0D0D082D08389
:0538D700D0F0D0E0324A
:030023000235079C
:10350700C0E0C0F0C083C082C0D075D000C000C08A
:1035170001C002C003C004C005C006C00730980B35
:10352700C2987B017A007902122724309908C29940
:103537009002657401F0D007D006D005D004D003FF
:10354700D002D001D000D0D0D082D083D0F0D0E04C
:013557003241
:030043000239700F
:10397000C0E0C083C082E59A30E009539AFE90000F
:10398000FB7401F0E59A30E109539AFD90026674E8
:0939900001F0D082D083D0E032B6
:1035F0004394405393BF43948053937F4392085323
:1036000091F74392045391FB4392205391DF4392ED
:10361000105391EF4392405391BF5394FB5393FB4C
:103620005396FE5395FE53B4EF53B3EF53B4F75391
:09363000B3F753B4FB53B3FB22C2
:0436BD0041020E00B8
:083C11007F0A7E007D007C00AB
:033C19000238DC92
:0C3B7200C2A0123B7ED2C4123B7ED2A047
:043B7E007F03DFFEE4
:013B82002220
:073C23007F057E000238DC82
:103A9600D2C4D2A0123B7E20C4037F0022C2C4122D
:103AA6003B7E30C4037F0022C2C4123B7E7F0122CC
:0F3BB200C2A0123B7EC2C4123B79D2C4023B7E3A
:08000300123B72C2A0023B7E19
:05002600AF04123A0DC9
:10002B00123B7230C408C2A0123B7E7F0022C2A0DA
:06003B00123B7E7F012252
:023A0D00AE0702
:103A0F007D08AF051DEF6018C2A0123B7EEE30E7B8
:103A1F0004D2C48002C2C4EE25E0FE123B7980E2DC
:023A2F00C2A033
:013A31002272
:103A32007E08E4FDD2C4AF061EEF6011ED25E0FD65
:103A4200C2A0123B7930C4EE4401FD80E9C2A0AFAE
:013A5200056E
:013A53002250
:10394000AE07AC05123A96EF7002FF22AF06123AAC
:103950000D12002BEF7005123BB2FF22120026AFB2
:1039600003123A0D12002B123BB2123C237F0122AC
:04370600AC07AB055C
:10370A00123A96EF70028009120026EF7009123BF6
:10371A00B2900215F0FF22AF03123A0D12002B12DB
:10372A003A96EC04FF123A0D12002B123A32AE0707
:0E373A00120003123BB29002157401F0AF06AC
:01374800225E
:1035A5007B017A02792090020FEBF0A3EAF0A3E900
:1035B500F0A3EBF0A3EAF0A3E9F0E490020EF01B10
:1035C5007D6B7FD01239407B077D197FD012394042
:1035D5007B067D1A7FD01239407B187D1B7FD01268
:0B35E50039407B017D1C7FD002394083
:102049007D3C7FD0123706900216EFF0900215E022
:1020590070030221E07D3B7FD0123706900217EF13
:10206900F0900215E070030221E0900217E0FE9063
:102079000216E0FDEDFF900208EEF0A3EFF09002EA
:102089000EE0B40118900208E0F9A3E0FF900212F3
:10209900E0FBA3E0FAA3E0C98FF012082690020E34
:1020A900E07024900208E0FCA3E0FDEC120243E496
:1020B900FBFA792478431201A190020FE0FBA3E017
:1020C900FAA3E0F9120A387D3E7FD0123706900252
:1020D90018EFF0900215E070030221E07D3D7FD0FA
:1020E900123706900219EFF0900215E070030221F1
:1020F900E0900219E0FE900218E0FDEDFF90020A5F
:10210900EEF0A3EFF090020EE0FFB4011C90020A7A
:10211900E0FCA3E0FD900212E0FBA3E0FAA3E0F9E2
:10212900900002EC8DF0120845EF702790020AE04A
:10213900FCA3E0FDEC120243E4FBFA792478431294
:1021490001A190020FE0FBA3E0FAA3E0F9900004DB
:10215900120A527D407FD012370690021AEFF09092
:102169000215E060727D3F7FD012370690021BEFA7
:10217900F0900215E0606090021BE0FE90021AE008
:10218900FDEDFF90020CEEF0A3EFF0A3E0FFB40128
:102199001C90020CE0FCA3E0FD900212E0FBA3E01E
:1021A900FAA3E0F9900004EC8DF0120845EF7027CE
:1021B90090020CE0FCA3E0FDEC120243E4FBFA7987
:1021C9002478431201A190020FE0FBA3E0FAA3E0F7
:0821D900F9900008120A5222DD
:101DFF007D447FD0123706900216EFF0900215E067
:101E0F0070030220487D437FD0123706900217EFF0
:101E1F00F0900215E07003022048900217E0FE9048
:101E2F000216E0FDEDFF900208EEF0A3EFF0900236
:101E3F000EE0B40118900208E0F9A3E0FF9002123F
:101E4F00E0FBA3E0FAA3E0C98FF012082690020E80
:101E5F00E07025900208E0FCA3E0FDEC1202437B4A
:101E6F00337A33798378411201A190020FE0FBA3FB
:101E7F00E0FAA3E0F9120A387D467FD012370690B8
:101E8F000218EFF0900215E070030220487D457FA5
:101E9F00D0123706900219EFF0900215E07003028E
:101EAF002048900219E0FE900218E0FDEDFF90022D
:101EBF000AEEF0A3EFF090020EE0FFB4011C9002C7
:101ECF000AE0FCA3E0FD900212E0FBA3E0FAA3E01E
:101EDF00F9900002EC8DF0120845EF702890020A7D
:101EEF00E0FCA3E0FDEC1202437B337A3379837875
:101EFF00411201A190020FE0FBA3E0FAA3E0F990D9
:101F0F000004120A527D487FD012370690021AEF52
:101F1F00F0900215E070030220487D477FD0123702
:101F2F000690021BEFF0900215E07003022048901C
:101F3F00021BE0FE90021AE0FDEDFF90020CEEF0A6
:101F4F00A3EFF0A3E0FFB4011C90020CE0FCA3E0B0
:101F5F00FD900212E0FBA3E0FAA3E0F9900004EC7D
:101F6F008DF0120845EF702890020CE0FCA3E0FD05
:101F7F00EC1202437B337A33798378411201A190BB
:101F8F00020FE0FBA3E0FAA3E0F9900008120A5257
:101F9F007D427FD012370690021CEFF0900215E0C1
:101FAF0070030220487D417FD012370690021DEF4B
:101FBF00F0900215E0700302204890021DE0FE90A1
:101FCF00021CE0FDEDFF900206EEF0A3EFF0900291
:101FDF000EE0FFB4011C900206E0FCA3E0FD9002AE
:101FEF0012E0FBA3E0FAA3E0F9900006EC8DF012EB
:101FFF000845EF7044900206E0FEA3E0FFEE339534
:10200F00E0FDFCEF2490FFEE3433FEE43DFDE43CB5
:10201F00FC12023EE4FBFA798C78431201A1E4FB37
:10202F00FA790C78421200AD90020FE0FBA3E0FAB0
:0A203F00A3E0F990000C120A5222EF
:1021E1007B027D377FD0123940123C117B017D0A81
:1021F1007F18123940123C117D037F181237069067
:102201000216EFF0900215E070030223727D047F45
:1022110018123706900217EFF0900215E0700302D2
:102221002372900217E0FE900216E0FDEDFF90028E
:1022310008EEF0A3EFF090020EE0B401189002084E
:10224100E0F9A3E0FF900212E0FBA3E0FAA3E0C9EA
:102251008FF012082690020EE0701A900208E0FC3E
:10226100A3E0FDEC12024390020FE0FBA3E0FAA30E
:10227100E0F9120A387D057F18123706900218EF2F
:10228100F0900215E070030223727D067F18123769
:1022910006900219EFF0900215E07003022372908C
:1022A1000219E0FE900218E0FDEDFF90020AEEF047
:1022B100A3EFF090020EE0FFB4011C90020AE0FCD3
:1022C100A3E0FD900212E0FBA3E0FAA3E0F9900085
:1022D10002EC8DF0120845EF701D90020AE0FCA39C
:1022E100E0FDEC12024390020FE0FBA3E0FAA3E051
:1022F100F9900004120A527D077F181237069002E6
:102301001AEFF0900215E060687D087F1812370619
:1023110090021BEFF0900215E0605690021BE0FE68
:1023210090021AE0FDEDFF90020CEEF0A3EFF0A396
:10233100E0FFB4011C90020CE0FCA3E0FD9002124E
:10234100E0FBA3E0FAA3E0F9900004EC8DF01208A1
:1023510045EF701D90020CE0FCA3E0FDEC1202437E
:1023610090020FE0FBA3E0FAA3E0F9900008120A43
:022371005222F6
:103B93008F9DE4F5BDF5BE75BC807F02FE0238DC67
:1039E700EF4488F5BC00000000E5BC30E4FB53BCA5
:1039F700EFAFBD7E00EF7802C333CE33CED8F9FFE9
:053A0700ADBEEF4DFF14
:013A0C002297
:1000A6000202B1E86480F8E933E83360110460F0D5
:1000B600ED33EC337009E8FCE9FDEAFEEBFF2204C0
:1000C60060DED3EB9FEA9EE99DE8C2E78CF0C2F7BB
:1000D60095F0400CE8CCF8E9CDF9EACEFAEBCFFB87
:1000E60012027C85D0F05804700320D5B3E8047062
:1000F600075002B2D50202BB92D5EC0460F7E4CCFD
:10010600C0E0C398F8603B94186008400DD0E0FB4F
:10011600020293E4FBFAC9FC8028E830E406E4C94D
:10012600FBE4CAFCE830E305E4C9CACBFCE85407A3
:100136006010F8C3E913F9EA13FAEB13FBEC13FCAE
:10014600D8F130F52FC3E49CFCEF9BFFEE9AFEED51
:1001560099FDD0E0FBEF4E4D4C701222DB030202FC
:10016600B8EC2CFCEF33FFEE33FEED33FDED30E75C
:10017600EB020293EF2BFFEE3AFEED39FDD0E0FBEA
:1001860050130BBB00030202BBED13FDEE13FEEF93
:0801960013FFEC13FC020293BD
:10019E000202BBEC5D046005E8590470030202B173
:1001AE0012027C580460F6EC4860F2EC7004FDFE1E
:1001BE00FF22C860DB2481C85009C3986002500634
:1001CE000202B89850CAF582E9294B4A7005AB82F3
:1001DE000202A775F0007C1A7880C3EF9BEE9AEDB1
:1001EE0099400DC3EF9BFFEE9AFEED99FDE842F0AC
:1001FE00DC23ACF0D0E0FFD0E0FED0E0FDAB8220FF
:10020E00E7101BEB60BAEC2CFCEF33FFEE33FEED88
:10021E0033FD020293E803F830E705C0F075F000F5
:10022E00EF2FFFEE33FEED33FD40B830E7C280AA6C
:10023E0075F020800E75F010800575F0087D007E3B
:10024E00007F003392D530D50312098FEC33401066
:10025E00EF33FFEE33FEED33FDEC33FCD5F0ED2244
:0E026E00E5F0247EA2D513CC92E7CDCEFF2280
:10160000E50824D5F582E43401F583E0050822904D
:1016100001D23007039001D5E475F001120AD70218
:1016200006742000E97F2ED2008018EF540F24901A
:10163000D43440D4FF30040BEF24BFB41A0050035D
:101640002461FFE50960021509050CE50C7002052F
:101650000B30070E9001D2E475F001120AD7EF02A9
:1016600006ED0239C07403D2078003E4C207F5080F
:101670009001D2120AEEE4F509F50BF50CE50960CC
:10168000077F2012164380F5750AFFC201C200C20F
:1016900002C203C205C206C20812160FFF700D3047
:1016A00007057F00121654AF0CAE0B22B4255FC2A3
:1016B000D5C20412160FFF24D0B40A00501A75F0D8
:1016C0000A780930D50508B6FF0106C6A426F6201B
:1016D000D5047002D20380D924CFB41A00EF50048D
:1016E000C2E5D204021946D20180C6D20080C0D21F
:1016F0000280BCD2D580BAD20580B47F20121643B6
:101700002002077401B5090040F1121600FF1216FD
:101710004302167DD208D2068095121600FB1216DF
:1017200000FA121600F94A4B700679447A1A7BFFC8
:1017300020022EE509602A7E008E82758300120643
:101740008D60060EEE650A70F0C2D5EBC0E0EAC00F
:10175000E0E9C0E0EE1219A7D0E0F9D0E0FAD0E05D
:10176000FB120674FF60AAEBC0E0EAC0E0E9C0E04B
:10177000121643D0E02401F9D0E03400FAD0E0FBA7
:10178000E50A0460DCD50AD98087D20280A212194A
:101790008960F7E50A7001041202C6A90A600DE526
:1017A0000A600914F50A121A31EF60F3EA30E70211
:1017B000F404C3995079EAF4250A0430E701E404FB
:1017C000F50A800D12198960C1EA050A250A12027C
:1017D000C6EA900201F030E701E4250A04D50A04C4
:1017E000200501141219A7E4C0E0121A3190020179
:1017F000E0601320E70714F012162B802204F0D0CB
:10180000E014C0E07F0012162BE50A6007121622D2
:10181000150A800B300503121622D0E002167DD087
:10182000E00480C4121989609EE50A041202C69081
:101830000201EAF0E50A20050260010424041219FD
:01184000A700
:1018410074FF04C0E0121A3112162BE50A200502BA
:101851006003121622D0E0B50AE87F4512163590D2
:101861000201E07F2B30E7047F2DF404C0E0121663
:1018710043D0E075F00A84C0F012162CD0E01216A5
:101881002C02167D791080027908C206C2088008F0
:10189100D2D5790A8004790AC2D5E50A047002F525
:1018A1000AE4FAFDFEFF121600FC7B082001131268
:1018B1001600FD7B1030000A121600FE121600FF02
:1018C1007B20EC3382D592D55013C3E43000069FC0
:1018D100FFE49EFEE42001039DFDE49CFCE4CBF8C3
:1018E100C201EC700CCFCECDCCE824F8F870F380B7
:1018F10017C3EF33FFEE33FEED33FDEC33FCEB3377
:10190100FB994002FB0FD8E9EB300105F8D0E0C4A8
:1019110048B201C0E00AEC4D4E4F78207B0070C206
:10192100EAB50A0040BCC0E01219A9D0F0D0E0200D
:101931000104C4C0E0C4B201C0F012162CD0F0D52D
:10194100F0EB02167D120B66171A5318855816EB29
:101951004C16E74218894F189144189149170043D2
:1019610018975517C446182445178E471A64501600
:10197100EF2D16F32E17162B16F7231714201A4DD9
:101981002A16AF480000170EE50AB4FF03750A06D0
:10199100121600FC121600FD121600FE121600FFB0
:1019A1009001FA020303790AA2D520031430050934
:1019B100B910020404B9080104A2D520060250019D
:1019C100042002689202B509005034C0E07F203043
:1019D10003197F30A20272067205500F121A00C25B
:1019E10002C206C205C2087F30800F300503E9C07C
:1019F100E0121643300503D0E0F9D0E0B509CC3050
:101A010005177F30B9100C1216437F583004077F39
:101A1100788003B908031216433002057F2D0216A0
:101A2100437F202008F87F2B2006F322920280CFEB
:101A31007F00B40700500B24FAF582E43401F583EA
:101A4100E0FF22286E756C6C2900D201121600305D
:101A510001F8C201780930D50108F60216AF2D5000
:101A61004349581216002403B405004001E4901ABA
:101A71005F93121634743A121634D20375090402B4
:021A81001885C6
:10027C00E9D2E7C933E833F892D5EDD2E7CD33ECC8
:07028C0033FC5002B2D52241
:10029300EC30E7100FBF000C0EBE00080DBD0004CC
:1002A3000BEB6014A2D5EB13FCED92E7FD2274FF78
:1002B300FCFDFEFF22E480F8A2D574FF13FC7D80D1
:0302C300E480EFE5
:1002C600F920E73624F950037907E4F42402FBE524
:1002D60082158270021583DBF6E024FB501BE96071
:1002E60014E4F0E582158270021583E004F0B40A86
:0D02F60008E4F0D9EE7401F00A22C2D5220E
:10030300ED33EC3392D5FA602AB4FF33EDC2E77BC9
:10031300FF60067A037928E4227A03793120D50431
:100323007A03792C224E614E002B494E46002D490B
:100333004E4600E47A08F0A3DAFC7B00740722C07F
:1003430083C082ECC0E0EDC0E0EEC0E0EFC0E0EAC5
:1003530075F010A4CAABF075F04DA42BFBE435F097
:10036300FCEA2410FAEB34C5FBEC34D9FCEDC2E70C
:10037300FF75F056A4F42411C5F0F434C58FF0A42E
:100383002AE5F03BE43CF020E71412053ED0E0FF01
:10039300D0E0FED0E0FDD0E0FC1201A18014F40413
:1003A30012053ED0E0FFD0E0FED0E0FDD0E0FC122D
:1003B3000408D082D083E0FAEDD2E7CD33EC3324C6
:1003C30082FBE4C3CF33CFCE33CECD33CD33DBF398
:1003D3007B0775F00A846004F0A31B0AE5F0F0A321
:1003E3008FF0740AA4FFACF08EF0740AA42CFEAC58
:1003F300F050010C8DF0740AA42CFDE435F0F0A349
:05040300DBDE7407229E
:10040800EC4D6011E8497017ED33EC3304600DE4EE
:10041800FCFFFEFD22E933E8330470F80202B11252
:10042800027C58046009E4CC248150062850090253
:1004380002BB2840030202B8C0E0EB4A7044B9800E
:1004480006D0E0FB0202A7EF4E701CBD8008EBFF50
:10045800EAFEE9FD80EBE98DF0A4FEE5F00204F187
:10046800E9CDF9EAFEEBFFEF89F0A4FCE5F0CE89CF
:10047800F0A42EFFE435F0CD89F0A42DFEE435F08C
:100488008067EF4E7005BD80D780C3EF8BF0A4ACBA
:10049800F0EE8BF0A42CFCE435F0F8EF8AF0A42CF5
:1004A800E5F038FCE433CB8DF0A42CFCE5F03BF808
:1004B800EE8AF0A42CFCE5F038F8E433CF89F0A4F8
:1004C8002CFCE5F038CF3400CE89F0A42FFFE5F0FE
:1004D8003EFEE433C98DF0A42EFEE5F039CD8AF056
:1004E800A42FFFE5F03EFEE43DFD33D0E0FB5007CE
:1004F8000BBB000F0202BBEC2CFCEF33FFEE33FE0C
:06050800ED33FD02029339
:10050E003F8000004120000042C80000447A0000F5
:10051E00461C400047C35000497424004B18968077
:10052E004CBEBC205A0E1BCA6753C21C749DC5AE6E
:10053E00FB60065407601C232312056CEB543860D5
:10054E0009120558120567120408ECF8EDF9EEFAD7
:10055E00EFCB22EB12056780F1543803241C900573
:10056E000EFE93FC0EEE93FD0EEE930ECE93FF2237
:0300000002318F3B
:0C318F00787FE4F6D8FD7581210231D66E
:10057E00E709F608DFFA8046E709F208DFFA803E5F
:10058E0088828C83E709F0A3DFFA8032E309F6084C
:10059E00DFFA8078E309F208DFFA807088828C83B4
:1005AE00E309F0A3DFFA806489828A83E0A3F60868
:1005BE00DFFA805889828A83E0A3F208DFFA804C42
:1005CE0080D280FA80C680D4806980F28033801019
:1005DE0080A680EA809A80A880DA80E280CA803382
:1005EE0089828A83ECFAE493A3C8C582C8CCC583FA
:1005FE00CCF0A3C8C582C8CCC583CCDFE9DEE780CA
:10060E000D89828A83E493A3F608DFF9ECFAA9F048
:10061E00EDFB2289828A83ECFAE0A3C8C582C8CC9E
:10062E00C583CCF0A3C8C582C8CCC583CCDFEADEB7
:10063E00E880DB89828A83E493A3F208DFF980CC19
:10064E0088F0EF60010E4E60C388F0ED2402B40412
:10065E000050B9F582EB2402B4040050AF232345B9
:06066E0082239005CE730B
:10067400BB010689828A83E0225002E722BBFE0284
:09068400E32289828A83E49322B7
:10068D00BB010CE58229F582E5833AF583E0225022
:10069D0006E92582F8E622BBFE06E92582F8E2226C
:0D06AD00E58229F582E5833AF583E4932286
:1006BA00BB010FF8E58229F582E5833AF583E02844
:1006CA00F0225009C58229F8E58226F622BBFE09E6
:1006DA00C58229F8E22582F222F8EA2583F583E920
:0306EA0093282230
:1006ED00BB010689828A83F0225002F722BBFE01EC
:0206FD00F322E6
:1006FF00F8BB010DE58229F582E5833AF583E8F031
:10070F00225006E92582C8F622BBFE05E92582C8DC
:02071F00F222C4
:10072100BC000BBE0029EF8DF084FFADF022E4CCBC
:10073100F875F008EF2FFFEE33FEEC33FCEE9DEC85
:10074100984005FCEE9DFE0FD5F0E9E4CEFD22EDCB
:10075100F8F5F0EE8420D21CFEADF075F008EF2F15
:10076100FFED33FD4007985006D5F0F222C398FD06
:050771000FD5F0EA22A3
:10077600BB010A89828A83E0F5F0A3E0225006874E
:10078600F009E71922BBFE07E3F5F009E319228910
:0B079600828A83E493F5F07401932243
:1007A100BB0110E58229F582E5833AF583E0F5F096
:1007B100A3E0225009E92582F886F008E622BBFE73
:1007C1000AE92582F8E2F5F008E222E5832AF583B9
:0807D100E993F5F0A3E993227E
:1007D900BB010DC58229C582C5833AC583020BB801
:1007E9005011C58229F808E5F026F618F5F0E582DA
:1007F90036F622BBFE11C58229F808E225F0F5F08C
:10080900F218E23582F222F8E58229F582E5832A97
:0D081900F58374019325F0F5F0E493382287
:10082600BB010A89828A83F0E5F0A3F0225006F71D
:0F08360009A7F01922BBFE06F3E5F009F319221A
:10084500F8BB0111E58229F582E5833AF583E8F0E5
:10085500E5F0A3F0225009E92582C8F608A6F022A2
:0D086500BBFE09E92582C8F2E5F008F22289
:10087200E88FF0A4CC8BF0A42CFCE98EF0A42CFC25
:100882008AF0EDA42CFCEA8EF0A4CDA8F08BF0A4A3
:100892002DCC3825F0FDE98FF0A42CCD35F0FCEB02
:1008A2008EF0A4FEA9F0EB8FF0A4CFC5F02ECD39C7
:0F08B200FEE43CFCEAA42DCE35F0FDE43CFC2234
:1008C10075F008758200EF2FFFEE33FECD33CDCCEE
:1008D10033CCC58233C5829BED9AEC99E582984071
:1008E1000CF582EE9BFEED9AFDEC99FC0FD5F0D64E
:1008F100E4CEFBE4CDFAE4CCF9A88222B800C1B978
:100901000059BA002DEC8BF084CFCECDFCE5F0CBB5
:10091100F97818EF2FFFEE33FEED33FDEC33FCEBEE
:1009210033FB10D703994004EB99FB0FD8E5E4F9A9
:10093100FA227818EF2FFFEE33FEED33FDEC33FC96
:10094100C933C910D7059BE99A4007EC9BFCE99A8A
:10095100F90FD8E0E4C9FAE4CCFB2275F010EF2FCF
:10096100FFEE33FEED33FDCC33CCC833C810D707CF
:100971009BEC9AE899400AED9BFDEC9AFCE899F80A
:0E0981000FD5F0DAE4CDFBE4CCFAE4C8F9229D
:1036C200C2D5E830E70FB2D5E4C39BFBE49AFAE433
:1036D20099F9E498F8EC30E717B2D51236F81208E7
:1036E200FDE4C39BFBE49AFAE499F9E498F88003B9
:1036F2001208FD30D50DE4C39FFFE49EFEE49DFD5C
:04370200E49CFC2225
:0E098F00C3E49FFFE49EFEE49DFDE49CFC2279
:10099D00EB9FF5F0EA9E42F0E99D42F0E89C45F0B0
:0109AD002227
:1009AE00E8600FECC313FCED13FDEE13FEEF13FF27
:0309BE00D8F1224B
:1009C100E86010ECA2E713FCED13FDEE13FEEF134C
:0409D100FFD8F02239
:1009D500E8600FEFC333FFEE33FEED33FDEC33FC80
:0309E500D8F12224
:1009E800BB010789828A83020BDA5005E9F8020BFA
:1009F800CEBBFE05E9F8020BE689828A83020BF278
:100A0800BB010DE58229F582E5833AF583020BDA0D
:100A18005007E92582F8020BCEBBFE07E92582F8CC
:100A2800020BE6E58229F582E5833AF583020BF2AB
:100A3800BB010789828A83020A765005E9F8020C0D
:0A0A480002BBFE05E9F8020C0E22C5
:100A5200BB010DE58229F582E5833AF583020A7628
:100A62005007E92582F8020C02BBFE07E92582F84D
:040A7200020C0E2242
:0C0A7600ECF0A3EDF0A3EEF0A3EFF022F3
:100A8200A8828583F0D083D082120A99120A991221
:100A92000A99120A99E473E493A3C583C5F0C58346
:100AA200C8C582C8F0A3C583C5F0C583C8C582C8BE
:010AB2002221
:100AB300BB010DE58229F582E5833AF583020A82BB
:100AC3005007E92582F8020C1ABBFE07E92582F8D4
:040AD300020C3322BC
:100AD700F8E0FBA3A3E0F925F0F0E58215827002A8
:070AE7001583E0FA38F0224C
:090AEE00EBF0A3EAF0A3E9F02209
:100AF700BB010789828A83020C5E5005E9F8020C64
:100B07004CBBFE05E9F8020C6789828A83020C79DF
:100B1700BB011A89828A83D0F0D0E0F8D0E0F9D0FF
:100B2700E0FAD0E0FBE8C0E0C0F0020AEE5016E9B8
:100B3700F8D083D082D0E0F9D0E0FAD0E0FBC082D1
:100B4700C083020C55BBFE16E9F8D083D082D0E0F3
:0F0B5700F9D0E0FAD0E0FBC082C083020C70221C
:100B6600D083D082F8E4937012740193700DA3A31E
:100B760093F8740193F5828883E473740293686032
:060B8600EFA3A3A380DF32
:1039C000EFB40A07740D1239CB740A309811A89914
:1039D000B8130CC2983098FDA899C298B811F63067
:0739E00099FDC299F599223F
:100B8C00EF4E6012EF60010EEDBB010B89828A8380
:100B9C00F0A3DFFCDEFA2289F05007F709DFFCA98D
:0C0BAC00F022BBFEFCF309DFFCA9F022E4
:10319B000225F2E493A3F8E493A34003F68001F233
:1031AB0008DFF48029E493A3F85407240CC8C33335
:1031BB00C4540F4420C8834004F456800146F6DF04
:1031CB00E4800B010204081020408090367EE47EE0
:1031DB00019360BCA3FF543F30E509541FFEE493F9
:1031EB00A360010ECF54C025E060A840B8E493A3C0
:1031FB00FAE493A3F8E493A3C8C582C8CAC583CAEB
:10320B00F0A3C8C582C8CAC583CADFE9DEE780BEA2
:0136C1000008
:100BB800C5F0F8A3E028F0C5F0F8E58215827002C8
:060BC8001583E038F02265
:0C0BCE00E6FC08E6FD08E6FE08E6FF2253
:0C0BDA00E0FCA3E0FDA3E0FEA3E0FF228E
:0C0BE600E2FC08E2FD08E2FE08E2FF224B
:100BF200E493FC740193FD740293FE740393FF2249
:0C0C0200ECF608EDF608EEF608EFF6221E
:0C0C0E00ECF208EDF208EEF208EFF22222
:100C1A00D083D082E493F608740193F608740293A1
:090C2A00F608740393F6740473D8
:100C3300D083D082E493F208740193F20874029390
:090C4300F208740393F2740473C7
:090C4C00E6FB08E6FA08E6F922CD
:090C5500EBF608EAF608E9F622C4
:090C5E00E0FBA3E0FAA3E0F92297
:090C6700E2FB08E2FA08E2F922BE
:090C7000EBF208EAF208E9F222B5
:0C0C7900E493FB740193FA740293F922D7
:00000001FF
