:08405B004102EE014102EF01F8
:0E46FF009002EEE060FAE49002EEF08F992255
:104635001206ABFF600C1246FF740129F9E43AFA41
:0346450080EE22E2
:0E470D009002EFE060FAE49002EFF08F9B2242
:104648001206ABFF600C12470D740129F9E43AFA1F
:0346580080EE22CF
:064063004302E70102D355
:103DF4009001E5EBF0A3EAF0A3E9F09002E7740187
:103E0400F0A37402F0A374D3F09001E5E0FBA3E007
:103E1400FAA3E0F9C003C002C0019002E7E0FBA3EB
:103E2400E0FAA3E0F9120B4EAF059002E7E0FBA322
:103E3400E0FAA3E0F9900003EC8FF012087C900004
:103E440005E4F5F012087C900007E41207369000B0
:0C3E540008E4120736900013E402073661
:103D81009002E7E0FBA3E0FAA3E0F9900003120739
:103D9100D8FFAEF09000051207D8C39FE5F09E4012
:103DA1000E900007E4120736900008E402073690EF
:103DB10002E7E0FBA3E0FAA3E0F990000774011227
:103DC10007369000051207D8FFAEF0120B2E8F8236
:103DD1008E831206C4FF9002E7E0FBA3E0FAA3E0A2
:103DE100F9900008EF120736900005E475F0011212
:033DF10008102295
:103E60009002E7E0FBA3E0FAA3E0F9900005120757
:103E7000D8D39400E5F09400900007500AE41207AC
:103E800036900008E4803274011207369000057401
:103E9000FFF5F01208109000051207D8FFAEF012DF
:103EA0000B2E8F828E831206C4FF9002E7E0FBA3E5
:0D3EB000E0FAA3E0F9900008EF12073622B7
:0B3BFE009001EFEBF0A3EAF0A3E9F068
:103C0900E4FDFC9001EFE0FBA3E0FAA3E0F98D826B
:103C19008C831206C46060123D819002E7E0FBA329
:103C2900E0FAA3E0F99000071206C4604A9001EF98
:103C3900E0FBA3E0FAA3E0F98D828C831206C4FFAE
:103C49009002E7E0FBA3E0FAA3E0F990000812066E
:103C5900C46F601C123E609002E7E0FBA3E0FAA388
:103C6900E0F9900007E4120736900008E4020736ED
:073C79000DBD00010C808C61
:013C80002221
:10371F009001F1120AB900000000E49001EFF0A34C
:10372F00F0123D819002E7E0FBA3E0FAA3E0F990ED
:10373F0000081206C4FFC394304070EFD394395081
:10374F006A9001F1E0FCA3E0FDA3E0FEA3E0FFE43B
:10375F007B0AFAF9F81208A99001F1120AAD90014B
:10376F00F1E0F8A3E0F9A3E0FAA3E0FBC000C00189
:10377F00C002C0039002E7E0FBA3E0FAA3E0F990D8
:10378F0000081206C424D0FFE434FFFEE4FCFDD091
:10379F0003D002D001D000EB2FFFEA3EFEED39FD42
:1037AF00EC38FC9001F1120AAD8005123E608014D6
:1037BF009001F0E004F060030237309001EFE00475
:1037CF00F00237309001F1E0FCA3E0FDA3E0FEA38F
:0237DF00E0FF09
:0137E10022C5
:0B39C7009001EFEBF0A3EAF0A3E9F0A1
:1039D2009002E7E0FBA3E0FAA3E0F99000051207EA
:1039E200D8FF9001F2E5F0F0A3EFF0123D819002D2
:1039F200E7E0FBA3E0FAA3E0F99000071206C46037
:103A02004AE4FCFD9001EFE0FBA3E0FAA3E0F98DAC
:103A1200828C831206C4FF601B9002E7E0FBA3E0E6
:103A2200FAA3E0F99000081206C46F60070DBD000A
:103A3200010C80D09001EFE0FBA3E0FAA3E0F98D46
:103A4200828C831206C470A3123E609001F2E0FEE3
:033A5200A3E0FFEF
:013A5500224E
:103F6B009002E7E0FBA3E0FAA3E0F990000512074B
:103F7B00D8FFAEF0E92409F9E43AFAC002C0019087
:103F8B0002E7A3E0FAA3E0F99000131206C475F060
:103F9B0002A4F58285F083D001D002EE8FF01208D7
:103FAB007C9002E7E0FBA3E0FAA3E0F99000137426
:043FBB00010206F108
:103EBD009002E7E0FBA3E0FAA3E0F990001374FF92
:103ECD001206F1E92409F9E43AFAC003C002C0016F
:103EDD009002E7E0FBA3E0FAA3E0F99000131206CD
:103EED00C475F002A4F58285F083D001D002D00311
:103EFD001207D8FF9002E7E0FBA3E0FAA3E0F990E8
:093F0D000005E5F08FF002087CCC
:103632009001EFEBF0A3EAF0A3E9F0A3E0FBA3E033
:10364200FAA3E0F974011207249001F2E0FBA3E06F
:10365200FAA3E0F990000174011207369001F9E033
:1036620024FEFF9001F8E034FFFE9001EFE0FBA39F
:10367200E0FAA3E02402F9E43AFAC003C002C0016E
:10368200A3E0FBA3E0FAA3E02402F9E43AA801FCD8
:10369200AD03D001D002D0031206859001F2E0FB07
:1036A200A3E0FAA3E0F9E41207249001F5E0FBA3FA
:1036B200E0FAA3E0F974011207249001F5E0FBA3FC
:1036C200E0FAA3E0F990000174011207369001F9C3
:1036D200E024FEFF9001F8E034FFFE9001EFE0FBF2
:1036E200A3E0FAA3E02402F9E43AFAC003C002C05C
:1036F200019001F5E0FBA3E0FAA3E02402F9E43A29
:10370200A801FCAD03D001D002D0031206859001BE
:0D371200F5E0FBA3E0FAA3E0F9E4020724D0
:10388F009001CEEBF0A3EAF0A3E9F09001CEE0FBBC
:10389F00A3E0FAA3E0F91206AB703E900001120606
:1038AF00C460369001D7E0FEA3E0FF9001D4E0FBA7
:1038BF00A3E0FAA3E0F8AC02AD039001CEE0FBA3C6
:1038CF00E0FAA3E01206859001CEE0FBA3E0FAA395
:1038DF00E0F9900001E41207369001D1E0FBA3E07C
:1038EF00FAA3E0F91206AB703E9000011206C46015
:1038FF00369001D7E0FEA3E0FF9001D4E0FBA3E0F8
:10390F00FAA3E0F8AC02AD039001D1E0FBA3E0FA1B
:10391F00A3E01206859001D1E0FBA3E0FAA3E0F942
:08392F00900001E412073622AA
:104431009001ECEBF0A3EAF0A3E9F07E007F1B7D95
:1044410000120BC39001ECE0FBA3E0FAA3E0F990AA
:0744510000097401020736A7
:103540009001F1EBF0A3EAF0A3E9F09001F1E0FBC8
:10355000A3E0FAA3E0F91206AB6017900001120A8B
:103560003F900005120A89900009E4120736E41220
:1035700007249001F1E0FBA3E0FAA3E0F990000535
:10358000120A3FE4FBFAF9F8C31209D47002804032
:103590009001F1E0FBA3E0FAA3E0F990000A120623
:1035A000C47040900005120A3FEF24FFFFEE34FF85
:1035B000FEED34FFFDEC34FFFC900005120A89900B
:1035C0000005120A3FE4FBFAF9F8C31209D470139C
:1035D0009001F1E0FBA3E0FAA3E0F9900009740187
:1035E0001207369001F1E0FBA3E0FAA3E0F99000A6
:1035F0000B1206C47014900005120A3F90000F12BF
:103600000A8990000D74011207369001F1E0FBA3C6
:10361000E0FAA3E0F990000C1206C47014900005C3
:10362000120A3F900013120A8990000E74011207CB
:02363000362240
:10437F009001ECEBF0A3EAF0A3E9F0A3EDF09001CC
:10438F00F0E0FF9001EFE06F60169001ECE0FBA30F
:10439F00E0FAA3E0F91235409001EFE004F080DE7F
:0143AF0022EB
:103C81009001E8120AAD9001E5EBF0A3EAF0A3E997
:103C9100F01206AB70699001E8E0FCA3E0FDA3E03F
:103CA100FEA3E0FF9001E5E0FBA3E0FAA3E0F990B9
:103CB1000001120A89E4FFFEFDFC9001E8E0F8A38F
:103CC100E0F9A3E0FAA3E0FBC31209D49001E56097
:103CD1000EE0FBA3E0FAA3E0F9900009E4800DE017
:103CE100FBA3E0FAA3E0F9900009740112073690F2
:103CF10001E5E0FBA3E0FAA3E0F974011207242235
:103D01009001F2120AAD9001EFEBF0A3EAF0A3E902
:103D1100F01206AB70699001F2E0FCA3E0FDA3E0B4
:103D2100FEA3E0FF9001EFE0FBA3E0FAA3E0F9902E
:103D31000001120A89E4FFFEFDFC9001F2E0F8A304
:103D4100E0F9A3E0FAA3E0FBC31209D49001EF600C
:103D51000EE0FBA3E0FAA3E0F9900009E4800DE096
:103D6100FBA3E0FAA3E0F990000974011207369071
:103D710001EFE0FBA3E0FAA3E0F9740112072422AA
:0A41B90012002B12474C7F0A7E0013
:0841C3009002EAEEF0A3EFF018
:1041CB00E4A3F0A3F09002EAE0FEA3E0FFC39002A9
:1041DB00EDE09F9002ECE09E50157F3212460B9063
:0F41EB0002EDE004F070DE9002ECE004F080D60C
:0141FA0022A2
:0747350092C412473CD2A020
:04473C007F21DFFEFC
:014740002256
:074770007F057E0002434CAF
:0F46D200D2C4124737C2C412473CC2A002473CB1
:0A474C00C2C4124737D2C402473C32
:0A475600A200124735C2A002473C42
:0D000E00D2A012473CA2C4C2A012473C225F
:050026001246D27FEE3E
:02002B00AE071E
:10002D00E4FDEE25E0FE124735C2A012473C0DED72
:06003D00B408EF02000E02
:10455C00E4FED2C4FDEE25E0FED2A012473CA2C47C
:10456C00E4334EFEC2A012473C0DEDB408E7AF0693
:01457C00221C
:02423C00AC07CD
:10423E00120026AF0412002B1246D27FEF12002B73
:10424E0012455C9001ECEFF0C20012475612455C2D
:10425E00A3EFF0D20012475612474C12477090014E
:08426E00ECE0FEA3E0FDEDFF12
:014276002225
:1045F2001200267FF412002B7F2E1241B97FF61291
:09460200423CEE3395E0FDFC2280
:10459D007F007E007D007C001200267FF412002B30
:0D45AD007F341241B97FF612423CE4FDFC60
:0145BA0022DE
:103937007FAA12423C9002C7EEF0A3EFF07FAC12D1
:10394700423C9002C9EEF0A3EFF07FAE12423C90EA
:1039570002CBEEF0A3EFF07FB012423C9002CDEE27
:10396700F0A3EFF07FB212423C9002CFEEF0A3EF4C
:10397700F07FB412423C9002D1EEF0A3EFF07FB695
:1039870012423C9002B9EEF0A3EFF07FB812423C2E
:103997009002BBEEF0A3EFF07FBA12423C9002C157
:1039A700EEF0A3EFF07FBC12423C9002C3EEF0A30F
:1039B700EFF07FBE12423C9002C5EEF0A3EFF0227B
:101761001245F290025B120AAD1245F290025B1231
:101771000AAD12459D90025F120AAD12459D90027D
:101781005F120AAD9002D1E0FEA3E0FBAA0690022F
:101791005BE0FCA3E0FDA3E0FEA3E0C39BFBEE9AAC
:1017A100FAED9400F9EC9400F89002CFE0FEA3E08A
:1017B100FFE4FCFD1208A9780F1209F890026312E8
:1017C1000AAD9002C3E0FEA3E0FFEE3395E0FDFC1D
:1017D100780B120A0CC004C005C006C007A3E0FEC6
:1017E100A3E0FFEE3395E0FDFC900263E0F8A3E097
:1017F100F9A3E0FAA3E02FFBEA3EFAE93DF9E83C60
:10180100F8D007D006D005D00412413290026712F9
:101811000AAD900267E0FCA3E0FDA3E0FEA3E0FFB8
:10182100900263E0F8A3E0F9A3E0FAA3E02FFFEA56
:101831003EFEE93DFDE83CFC90026B120AAD9002D0
:101841006BE0FCA3E0FDA3E0FEA3E02408FFE43E7F
:10185100FEE43DFDE43CFC78041209F89002BD125F
:101861000AAD90026BE0FCA3E0FDA3E0FEA3E0243F
:1018710060FFEE34F0FEED34FFFDEC34FFFCA3120B
:101881000AAD90026FE0FCA3E0FDA3E0FEA3E0FF40
:10189100A804A905AA06FB1208A9780C1209F8A840
:1018A10004A905AA06AB079002BBE0FEA3E0FFEE88
:1018B1003395E0FDFC1208A9780B1209F890026338
:1018C100120AAD9002C9E0FEA3E0FFEE3395E0FD00
:1018D100FC90026FE0F8A3E0F9A3E0FAA3E0FB12A9
:1018E10008A9780B1209F8900267120AAD900267F5
:1018F100E0FCA3E0FDA3E0FEA3E0FF900263E0F8BB
:10190100A3E0F9A3E0FAA3E02FFFEA3EFEE93DFDE3
:10191100E83CFC900273120AAD9002C7E0FEA3E01E
:10192100FFEE3395E0FDFCE47B04FAF9F81208A917
:10193100900273E0F8A3E0F9A3E0FAA3E02FFFEA35
:101941003EFEE93DFDE83CFCEF2402FFE43EFEE4FF
:101951003DFDE43CFCE47B04FAF9F81241329002CB
:1019610077120AAD9002CBE0FEA3E0FFEE3395E0E3
:10197100FDFC90026FE0F8A3E0F9A3E0FAA3E0FB1D
:101981001208A9780D1209F8900263120AAD9002AB
:101991006FE0FCA3E0FDA3E0FEA3E0FF90026FE097
:1019A100F8A3E0F9A3E0FAA3E0FB1208A9780C126E
:1019B10009F8A804A905AA06AB079002B9E0FEA39D
:1019C100E0FFEE3395E0FDFC1208A978101209F84A
:1019D100900267120AAD900267E0FCA3E0FDA3E06C
:1019E100FEA3E0FF900263E0F8A3E0F9A3E0FAA30D
:1019F100E02FFFEA3EFEE93DFDE83CFCEF2402FF5B
:101A0100E43EFEE43DFDE43CFC78021209F890025C
:101A110073120AAD900273E0FCA3E0FDA3E0FEA304
:101A2100E02400FFEE3480FEE43DFDE43CAB07AA78
:101A310006A905F89002CDE0FEA3E0FFE4FCFD124B
:101A410008A9780F1209E590027F120AAD90025F92
:101A5100E0FCA3E0FDA3E0FEA3E0FFC004C005C0DD
:101A610006C007900277E0FCA3E0FDA3E0FEA3E03F
:101A7100FBAA06A905A804D007D006D005D004C347
:101A8100EF9BFFEE9AFEED99FDEC98FCE47B507A1A
:101A9100C3F9F81208A9900283120AADE4FFFEFD12
:101AA1007C80900283E0F8A3E0F9A3E0FAA3E0FBD5
:101AB100C31209D45025E47F02FEFDFC900283E0AD
:101AC100F8A3A3A3E01208A990027FE0F8A3E0F92C
:101AD100A3E0FAA3E0FB120934802690027FE0F82C
:101AE100A3E0F9A3E0FAA3E0FBA3E0FCA3E0FDA3DC
:101AF100E0FEA3E0FF120934E47B02FAF9F81208D0
:101B0100A990027B120AAD90027BE0FCA3E0FDA349
:101B1100E0FEA3E0FF78081209F8C004C005C00682
:101B2100C00790027BE0FCA3E0FDA3E0FEA3E0FF81
:101B310078081209F8D003D002D001D0001208A908
:101B4100900263120AADE47FDE7E0BFDFC9002631E
:101B5100E0F8A3E0F9A3E0FAA3E0FB1208A97810EA
:101B61001209F8900263120AAD7F437EE37DFF7C88
:101B7100FF90027BE0F8A3E0F9A3E0FAA3E0FB12F7
:101B810008A978101209F8900267120AAD9002674D
:101B9100E0FCA3E0FDA3E0FEA3E0FF900263E0F818
:101BA100A3E0F9A3E0FAA3E02FFFEA3EFEE93DFD41
:101BB100E83CFCEF24CFFFEE340EFEE43DFDE43CB7
:101BC100FC78041209F890027BE0F8A3E0F9A3E0A5
:101BD100FAA3E02FFFEA3EFEE93DFDE83CFC90025E
:0A1BE10087120AAD9002B5020AADAA
:10460B00EFFD7C00E4FF0FEFB405FBED1D70011C0B
:04461B00ED4C70F002
:01461F002278
:10462000AE07AF061EEF600C7FF512460B7FF5124A
:05463000460B80EE22A4
:04434C00AB07AA060B
:104350007C007DFB1207589001EFEFF0AE02AF0337
:104360007C007DFB120758AB059001EFE0FF14F0D5
:0F437000EF60077FFB12462080EFAF030246206D
:10344C0041544348532B0020004552522E20746F98
:10345C006F206C61726765206368206E756D2E0D30
:10346C000A002C004552522E20657870656374203A
:10347C007370656564206E756D2E0D0A0045525291
:10348C002E207370656564206E756D206F757420C9
:10349C006F662072616E67652E0D0A007C004552C6
:1034AC00522E2065787065637420636865636B20A9
:1034BC006E756D2E0D0A004F4B0D0A00415443489A
:1034CC00412B00415441534B2B004552522E20743A
:1034DC006F6F206C61726765206E756D2E0D0A0022
:1034EC004F4B2E2025662C25662C25662C25660D2B
:1034FC000A0041545052532B004F4B2E20256C6424
:10350C002C256C640D0A004552522E20756E6B6E84
:10351C006F776E0D0A0025662C2025660D0A002596
:10352C00662C2025662C25660D0A0013881388133B
:04353C008813882840
:1040690042014800004200FE0000420100000042F7
:104079000102000042010400004200020000410167
:1040890041004200140000420000000042001600F6
:06409900004200180000C7
:1037E2009001ECEBF0A3EAF0A3E9F07E007F027D0A
:1037F200009001ECE0FBA3E0FAA3E0F9120BC39006
:1038020001ECE0FBA3E0FAA3E0F9900002E4120766
:10381200367E007F0C7D00E92403F9E43AFA120BAC
:10382200C37E007F0D7D009001ECE0FBA3E0FAA3D4
:10383200E0240FF9E43AFA120BC39001ECE0FBA387
:10384200E0FAA3E0F990001C120AEA0000000090DE
:103852000020120AEA00000000900024740275F0B1
:103862008012087C7E007F127D00E92426F9E43A6A
:10387200FA120BC37E007F037D009001ECE0FBA3F4
:0D388200E0FAA3E02438F9E43AFA020BC39F
:1040ED00E4120724900001120736900002E4120733
:1040FD0036900003120AEA00000000900007E41257
:10410D000736900008E4120736900009E4120736CE
:10411D0090000AE412073690000BE4120736900067
:05412D000CE40207365E
:10427700E4120724900001120736900002740275B9
:10428700F0BC12087C900004740275F0BC12087C24
:10429700900006740275F0BC12087C900008740246
:0642A70075F0BC02087C6A
:100046009001ECEBF0A3EAF0A3E9F09001ECE0FB01
:10005600A3E0FAA3E0F9E41207249001ECE0FBA385
:10006600E0FAA3E0F9900001E41207367E007F195A
:100076007D00E92402F9E43AFA120BC37E007F12EE
:100086007D009001ECE0FBA3E0FAA3E0241BF9E479
:050096003AFA020BC361
:0B206E009001CEEBF0A3EAF0A3E9F034
:102079001207ADFFAEF0E5F06003022118EF14B4CA
:102089002800400302211890209E75F003A4C583FF
:1020990025F0C5837302212A02213C02214E022127
:1020A900600221720221840221960221A80221BA2A
:1020B9000221CC0221DE0221F002220202221402B4
:1020C900222602223802224A02225C02226E0222BF
:1020D900800222920222A40222B60222C80222DA35
:1020E9000222EC0222FE02231002232202233402DE
:1020F900234602235802236902237A02238B0223EF
:102109009C0223AD0223BE0223CF0223E180249047
:1021190001CEE0FBA3E0FAA3E0F9E475F0010223A4
:10212900DE9001CEE0FBA3E0FAA3E0F9E475F0024A
:102139000223DE9001CEE0FBA3E0FAA3E0F9E47507
:10214900F0030223DE9001CEE0FBA3E0FAA3E0F95D
:10215900E475F0040223DE9001CEE0FBA3E0FAA3CC
:10216900E0F9E475F0050223DE9001CEE0FBA3E07F
:10217900FAA3E0F9E475F0060223DE9001CEE0FB54
:10218900A3E0FAA3E0F9E475F0070223DE9001CE9B
:10219900E0FBA3E0FAA3E0F9E475F0080223DE907E
:1021A90001CEE0FBA3E0FAA3E0F9E475F00902230C
:1021B900DE9001CEE0FBA3E0FAA3E0F9E475F00AB2
:1021C9000223DE9001CEE0FBA3E0FAA3E0F9E47577
:1021D900F00B0223DE9001CEE0FBA3E0FAA3E0F9C5
:1021E900E475F00C0223DE9001CEE0FBA3E0FAA334
:1021F900E0F9E475F00D0223DE9001CEE0FBA3E0E7
:10220900FAA3E0F9E475F00E0223DE9001CEE0FBBB
:10221900A3E0FAA3E0F9E475F00F0223DE9001CE02
:10222900E0FBA3E0FAA3E0F9E475F0100223DE90E5
:1022390001CEE0FBA3E0FAA3E0F9E475F011022373
:10224900DE9001CEE0FBA3E0FAA3E0F9E475F01219
:102259000223DE9001CEE0FBA3E0FAA3E0F9E475E6
:10226900F0130223DE9001CEE0FBA3E0FAA3E0F92C
:10227900E475F0140223DE9001CEE0FBA3E0FAA39B
:10228900E0F9E475F0150223DE9001CEE0FBA3E04E
:10229900FAA3E0F9E475F0160223DE9001CEE0FB23
:1022A900A3E0FAA3E0F9E475F0170223DE9001CE6A
:1022B900E0FBA3E0FAA3E0F9E475F0180223DE904D
:1022C90001CEE0FBA3E0FAA3E0F9E475F0190223DB
:1022D900DE9001CEE0FBA3E0FAA3E0F9E475F01A81
:1022E9000223DE9001CEE0FBA3E0FAA3E0F9E47556
:1022F900F01B0223DE9001CEE0FBA3E0FAA3E0F994
:10230900E475F01C0223DE9001CEE0FBA3E0FAA302
:10231900E0F9E475F01D0223DE9001CEE0FBA3E0B5
:10232900FAA3E0F9E475F01E0223DE9001CEE0FB8A
:10233900A3E0FAA3E0F9E475F01F0223DE9001CED1
:10234900E0FBA3E0FAA3E0F9E475F0200223DE90B4
:1023590001CEE0FBA3E0FAA3E0F9E475F021807572
:102369009001CEE0FBA3E0FAA3E0F9E475F0228046
:10237900649001CEE0FBA3E0FAA3E0F9E475F02351
:1023890080539001CEE0FBA3E0FAA3E0F9E475F0F5
:102399002480429001CEE0FBA3E0FAA3E0F9E475C2
:1023A900F02580319001CEE0FBA3E0FAA3E0F9E447
:1023B90075F02680209001CEE0FBA3E0FAA3E0F9B6
:1023C900E475F027800F9001CEE0FBA3E0FAA3E0CB
:1023D900F9E475F02802085D900005E004F0022197
:0123E90018DB
:0B2E89009001CBEBF0A3EAF0A3E9F00E
:102E94001207ADFFAEF0E5F0700DEF147003022FD2
:102EA40054147003022FD19001817401F0A37400B3
:102EB400F0A3743AF090009E7401F0A37401F0A39F
:102EC400743DF0900181E0FBA3E0FAA3E0F912075E
:102ED400AD25E0FFE5F033FEC39035377401939FD1
:102EE400FFE4939EFEC3E49FFFE49EF990009EE0FE
:102EF400FBA3E0FAA3E0C98FF012085D900181E022
:102F0400FBA3E0FAA3E0F91207AD25E0FFE5F033F7
:102F1400FEC39035377401939FFFE4939EFEC3E490
:102F24009FFFE49EF990009EE0FBA3E0FAA3E0C9B2
:102F34008FF012085D90013DE0F58CA3E0F58A90D6
:102F440001CBE0FBA3E0FAA3E0F9E475F001807A99
:102F5400D2867B017A01794812206E900181E0FBD0
:102F6400A3E0FAA3E0F91207AD25E0FFE5F033FE94
:102F7400C3E49FFFE49EF990009EE0FBA3E0FAA364
:102F8400E0C98FF012085D90013DE0F58CA3E0F5F7
:102F94008A9001D17401F0A37400F0A3742EF0A3FD
:102FA4007401F0A37400F0A37438F0A3E4F0A374E4
:102FB4000AF07B017A00792412388F9001CBE0FB70
:102FC400A3E0FAA3E0F9E475F00202085DC2860208
:022FD4002F00CC
:0B3104009001D9EBF0A3EAF0A3E9F082
:10310F001207ADFFE5F0700DEF1470030231CD140F
:10311F0070030232179001847401F0A37400F0A3BE
:10312F00743CF09000A97401F0A37401F0A3743FF4
:10313F00F0900184E0FBA3E0FAA3E0F91207AD25BC
:10314F00E0FFE5F033FEC39035397401939FFFE440
:10315F00939EFEC3E49FFFE49EF99000A9E0FBA3BA
:10316F00E0FAA3E0C98FF012085D900184E0FBA3A1
:10317F00E0FAA3E0F91207AD25E0FFE5F033FEC357
:10318F009035397401939FFFE4939EFEC3E49FFF34
:10319F00E49EF99000A9E0FBA3E0FAA3E0C98FF049
:1031AF0012085D90013FE0F58DA3E0F58B9001D9FA
:1031BF00E0FBA3E0FAA3E0F9E475F0018047D287C2
:1031CF00900184E0FBA3E0FAA3E0F91207AD25E03C
:1031DF00FFE5F033FEC3E49FFFE49EF99000A9E002
:1031EF00FBA3E0FAA3E0C98FF012085D90013FE066
:1031FF00F58DA3E0F58B9001D9E0FBA3E0FAA3E0F6
:0D320F00F9E475F00202085DC28702317912
:0B321C009001DCEBF0A3EAF0A3E9F066
:103227001207ADFFE5F0700DEF1470030232E514DD
:10323700700302332F9001877401F0A37400F0A389
:10324700743EF09000AC7401F0A37401F0A37442D3
:10325700F0900187E0FBA3E0FAA3E0F91207AD25A0
:10326700E0FFE5F033FEC390353B7401939FFFE425
:10327700939EFEC3E49FFFE49EF99000ACE0FBA39E
:10328700E0FAA3E0C98FF012085D900187E0FBA385
:10329700E0FAA3E0F91207AD25E0FFE5F033FEC33E
:1032A70090353B7401939FFFE4939EFEC3E49FFF19
:1032B700E49EF99000ACE0FBA3E0FAA3E0C98FF02D
:1032C70012085D900142E0F5D4A3E0F5D59001DC4A
:1032D700E0FBA3E0FAA3E0F9E475F0018047D2939D
:1032E700900187E0FBA3E0FAA3E0F91207AD25E020
:1032F700FFE5F033FEC3E49FFFE49EF99000ACE0E6
:10330700FBA3E0FAA3E0C98FF012085D900142E049
:10331700F5D4A3E0F5D59001DCE0FBA3E0FAA3E048
:0D332700F9E475F00202085DC293023291D4
:0B3334009001DFEBF0A3EAF0A3E9F04A
:10333F001207ADFFE5F0700DEF1470030233FD14AB
:10334F00700302344790018A7401F0A37400F0A354
:10335F007440F09000AF7401F0A37401F0A37446B1
:10336F00F090018AE0FBA3E0FAA3E0F91207AD2584
:10337F00E0FFE5F033FEC390353D7401939FFFE40A
:10338F00939EFEC3E49FFFE49EF99000AFE0FBA382
:10339F00E0FAA3E0C98FF012085D90018AE0FBA369
:1033AF00E0FAA3E0F91207AD25E0FFE5F033FEC325
:1033BF0090353D7401939FFFE4939EFEC3E49FFFFE
:1033CF00E49EF99000AFE0FBA3E0FAA3E0C98FF011
:1033DF0012085D900146E0F5D2A3E0F5D39001DF2E
:1033EF00E0FBA3E0FAA3E0F9E475F0018047D29285
:1033FF0090018AE0FBA3E0FAA3E0F91207AD25E004
:10340F00FFE5F033FEC3E49FFFE49EF99000AFE0C9
:10341F00FBA3E0FAA3E0C98FF012085D900146E02C
:10342F00F5D2A3E0F5D39001DFE0FBA3E0FAA3E030
:0D343F00F9E475F00202085DC2920233A9A3
:0B2FD6009001E2EBF0A3EAF0A3E9F0A9
:102FE1001207ADFFE5F07010EF14602824FE7003A6
:102FF100023083047002803A900141E07005E004E0
:10300100F080119001E2E0FBA3E0FAA3E0F9E4759E
:10301100F001806B90018DE599F090018DE0B44154
:10302100D79001E2E0FBA3E0FAA3E0F9E475F00236
:10303100804D90018DE599F0E0B454BC900011747D
:1030410001F0A37400F0A37444F0E490013CF0900B
:103051000011E0FBA3E0FAA3E0F990013C80647B5E
:10306100017A0079B27F077E007D007C00123C81ED
:103071009001E2E0FBA3E0FAA3E0F9E475F00302BA
:10308100085D90018DE599F09000BBE0708C903562
:103091003FE493FF90013CE0FEC39F4003022FF900
:1030A10090018DE0FF643B6026900011E0FBA3E0FE
:1030B100FAA3E0F98E82758300EF12073690013C86
:1030C100E004F0E0F582758300E412073680909009
:1030D1000042E06003022FF9786F7C007D017B01E3
:1030E1007A007942FE7F2D1206857B017A00797183
:1030F10090013CE0FD7C00123DF49000427401F02F
:03310100022FF9A1
:0B1270009001ECEBF0A3EAF0A3E9F022
:10127B001207ADFFAEF0900042E070030217471269
:10128B003F6B744C2402F9E43434FA7BFF123BFEBF
:10129B009002E7E0FBA3E0FAA3E0F9900007120647
:1012AB00C470030213F97BFF7A3479531239C712D6
:1012BB00371F90009CEEF0A3EFF07BFF7A3479534D
:1012CB001239C7D390009DE0940490009CE09400E9
:1012DB0040097BFF7A3479550217447BFF7A3479C6
:1012EB006E123BFE9002E7E0FBA3E0FAA3E0F9905D
:1012FB0000071206C470097BFF7A34797002174419
:10130B0012371F90018EEEF0A3EFF0C394BCEE9456
:10131B0002400CD3E0943490018EE0940840097B9A
:10132B00FF7A3479890217447BFF7A3479A8123B10
:10133B00FE9002E7E0FBA3E0FAA3E0F990000712AE
:10134B0006C470097BFF7A3479AA02174412371F3F
:10135B00900144EEF0A3EFF090009CE07004A3E04A
:10136B006401700C90018EE0FFA3E090001C80469E
:10137B0090009CE07004A3E06402700C90018EE07E
:10138B00FFA3E090001E802E90009CE07004A3E071
:10139B006403700C90018EE0FFA3E0900020801698
:1013AB0090009CE07004A3E06404703990018EE01F
:1013BB00FFA3E0900022CFF0A3EFF09001F27401B5
:1013CB00F0A37400F0A37424F0A37401F0A37400D1
:1013DB00F0A3742EF0A3E4F0A3740AF07B017A005F
:1013EB00791A1236327BFF7A3479C3021744123ED4
:1013FB00BD123F6B74C82402F9E43434FA7BFF123C
:10140B003BFE9002E7E0FBA3E0FAA3E0F9900007B4
:10141B001206C47003021566E4900144F0A3F012A7
:10142B00371FAD07AC06900145E025E0FF90014466
:10143B00E033FE74A12FF58274003EF583ECF0A32C
:10144B00EDF074A12FF58274003EF583E0FEA3E06E
:10145B00FFC394BCEE94024009D3EF9434EE94088E
:10146B0040097BFF7A347989021744900144E0707C
:10147B0004A3E0640360257BFF7A34796E123BFE94
:10148B009002E7E0FBA3E0FAA3E0F9900007120655
:10149B00C470097BFF7A347970021744900145E0E0
:1014AB0004F07006900144E004F0C3900145E09411
:1014BB0004900144E09400500302142A7BFF7A3419
:1014CB0079A8123BFE9002E7E0FBA3E0FAA3E0F958
:1014DB009000071206C470097BFF7A3479AA0217B1
:1014EB004412371F900144EEF0A3EFF09000A1E0FF
:1014FB00FFA3E090001CCFF0A3EFF09000A3E0FF60
:10150B00A3E090001ECFF0A3EFF09000A5E0FFA3A7
:10151B00E0900020CFF0A3EFF09000A7E0FFA3E056
:10152B00900022CFF0A3EFF09001F27401F0A374BE
:10153B0000F0A37424F0A37401F0A37400F0A3745F
:10154B002EF0A3E4F0A3740AF07B017A00791A124F
:10155B0036327BFF7A3479C3021744123EBD123FF9
:10156B006B74CF2402F9E43434FA7BFF123BFE9008
:10157B0002E7E0FBA3E0FAA3E0F99000071206C430
:10158B00700302169012371F90009CEEF0A3EFF041
:10159B00C39403EE940040097BFF7A3479D602178B
:1015AB00447BFF7A3479A8123BFE9002E7E0FBA361
:1015BB00E0FAA3E0F99000071206C470097BFF7AEA
:1015CB003479AA02174412371F900144EEF0A3EFAF
:1015DB00F09001F274FFF0A37434F0A374ECF0906C
:1015EB00009DE0C4F8540FC868FB90009CE0C45405
:1015FB00F048FA74CD2BF58274003AF583E0FCA326
:10160B00E0FDA3E0FEA3E0FF9001F5120AAD74D15B
:10161B002BF58274003AF583E0FCA3E0FDA3E0FE1A
:10162B00A3E0FF9001F9120AAD90009DE0C4F854BD
:10163B000FC868FB90009CE0C454F048FA74D52B9B
:10164B00F58274003AF583E0FCA3E0FDA3E0FEA372
:10165B00E0FF9001FD120AAD74D92BF58274003AAC
:10166B00F583E0FCA3E0FDA3E0FEA3E0FF90020105
:10167B00120AAD7B017A01794A121C507B017A0167
:10168B00794A021744123EBD123F6B74FE2402F9D5
:10169B00E43434FA7BFF123BFE9002E7E0FBA3E05D
:1016AB00FAA3E0F99000071206C4700302173B126D
:1016BB00371F90009CEEF0A3EFF07BFF7A3479A8F4
:1016CB00123BFE9002E7E0FBA3E0FAA3E0F99000E7
:1016DB00071206C470087BFF7A3479AA805B123735
:1016EB001F900144EEF0A3EFF09001F274FFF0A312
:1016FB007435F0A37405F09002B5E0FCA3E0FDA3F4
:10170B00E0FEA3E0FF9001F5120AAD9002BDE0FCF4
:10171B00A3E0FDA3E0FEA3E0FF9001F9120AAD7B6D
:10172B00017A01794A121C507B017A01794A8009AE
:10173B00123EBD7BFF7A357913124635900042E09D
:10174B006002E4F09001ECE0FBA3E0FAA3E0F9E423
:06175B0075F00102085DBB
:0B29B7009001ECEBF0A3EAF0A3E9F0C4
:1029C2001207ADFFAEF0E5F0702FEF14B40800501F
:1029D200289029E175F003A4C58325F0C58373020D
:1029E2002A4E022A60022AB3022AC5022B17022BA0
:1029F20028022B3C022B4D8065122B5F90029AE03D
:102A02006038900294E0FBA3E0FAA3E0F9120A1FF7
:102A12009000CD120AAD900004120A3F9000D1122C
:102A22000AAD900008120A3F9000D5120AAD90003C
:102A32000C120A3F9000D9120AAD9001ECE0FBA300
:102A4200E0FAA3E0F9E475F001022B5C9001ECE0FE
:102A5200FBA3E0FAA3E0F9E475F002022B5C122377
:102A6200EA90029AE06038900294E0FBA3E0FAA3B5
:102A7200E0F9120A1F9000DD120AAD900004120A5A
:102A82003F9000E1120AAD900008120A3F9000E563
:102A9200120AAD90000C120A3F9000E9120AAD90A2
:102AA20001ECE0FBA3E0FAA3E0F9E475F003022BEA
:102AB2005C9001ECE0FBA3E0FAA3E0F9E475F0041A
:102AC200022B5C122CF790029AE06038900294E09C
:102AD200FBA3E0FAA3E0F9120A1F9000ED120AAD7F
:102AE200900004120A3F9000F1120AAD9000081201
:102AF2000A3F9000F5120AAD90000C120A3F9000B6
:102B0200F9120AAD9001ECE0FBA3E0FAA3E0F9E4CC
:102B120075F00580459001ECE0FBA3E0FAA3E0F933
:102B2200E475F0068034120CBC9001ECE0FBA3E0EB
:102B3200FAA3E0F9E475F00780209001ECE0FBA332
:102B4200E0FAA3E0F9E475F008800F9001ECE0FBF5
:0D2B5200A3E0FAA3E0F9E475F00902085DC4
:0B3A56009001ECEBF0A3EAF0A3E9F014
:103A61001207ADFFE5F07009EF14602414604B807C
:103A71000090000CE0D394004057E014F0D2967B04
:103A8100017A0179067F077E007D007C00123D01ED
:103A910090010FE070119001ECE0FBA3E0FAA3E0CC
:103AA100F9E475F0018039C2967B017A0179067FCC
:103AB100077E007D007C00123D0190010FE0701136
:103AC1009001ECE0FBA3E0FAA3E0F9E475F00280D9
:103AD1000F9001ECE0FBA3E0FAA3E0F9E475F00339
:033AE10002085D7B
:0B3AE4009001ECEBF0A3EAF0A3E9F086
:103AEF001207ADFFE5F07009EF14602414604B80EE
:103AFF000090000BE0D394004057E014F0D2967B77
:103B0F00017A0179217F017E007D007C00123D0149
:103B1F0090012AE070119001ECE0FBA3E0FAA3E022
:103B2F00F9E475F0018039C2967B017A0179217F22
:103B3F00017E007D007C00123D0190012AE0701192
:103B4F009001ECE0FBA3E0FAA3E0F9E475F002804A
:103B5F000F9001ECE0FBA3E0FAA3E0F9E475F003AA
:033B6F0002085DEC
:10466E00538E7F5389F0758AF0758CD8C28DD28C9B
:01467E002219
:10467F00538EBF53890F758BF0758DD8C28FD28E25
:01468F002208
:0D471B0053D1FD75D5F075D4D843D10822D7
:0D47280053D1DF75D3F075D2D843D1802274
:10465B00759850438E01538EFB75D7CC75D6FF439F
:03466B008E10228C
:1046B200759A50538EFB75D7CC75D6FF438E102258
:1027F6007F0D780FEFF6F876150876A0C2AF124671
:102806006E12467F12471B124728D2A9D2AB43AF9E
:102816002043AF4012465BD2AC1246B243BA0175B2
:10282600AF011240A47B017A0179901237E27B0155
:102836007A0079041240ED7A00791A1242777A000A
:1028460079241242777A00792E1242777A00793803
:102856001242777A0079421200467B017A00796F3C
:102866001200461240101239377B017A0079B212F3
:1028760044317B017A0179061244317B017A017970
:1028860021124431C296C295C2947F2C7E01124316
:102896004CD2AF20AF030229437F4D7E0112434C39
:1028A600120CBC9001F274FFF0A37435F0A37422ED
:1028B600F090023BE0FCA3E0FDA3E0FEA3E0FF9066
:1028C60001F5120AAD900257E0FCA3E0FDA3E0FE7D
:1028D600A3E0FF9001F9120AAD7B017A01794A1251
:1028E6001C507B017A01794A124635122B5F900102
:1028F600F274FFF0A37435F0A3742BF0900294E009
:10290600FBA3E0FAA3E0F9120A1F9001F5120AAD43
:10291600900004120A3F9001F9120AAD90000812C5
:102926000A3F9001FD120AAD7B017A01794A121C19
:10293600507B017A01794A12463502289990000B9C
:102946007401F07B017A0079141212707B017A000F
:1029560079001229B77B017A0079B2900006E0FD72
:10296600900005E09001F0F012437F7B017A017937
:1029760006900006E0FD900005E09001F0F012439D
:102986007F7B017A017921900006E0FD900005E049
:102996009001F0F012437F900005E0A3F07B017AEE
:1029A600007916123A567B017A007918123AE480B9
:0129B600928E
:03000B000241FBB4
:1041FB00C0E0C0F0C083C082C0D075D000C000C08A
:10420B0001C002C003C004C005C006C0077B017A11
:10421B000079FE122E89D007D006D005D004D0032A
:10422B00D002D001D000D0D0D082D083D0F0D0E05B
:01423B003250
:03001B000242ADF1
:1042AD00C0E0C0F0C083C082C0D075D000C001C0D6
:1042BD0002C003C006C0077B017A017900123104E8
:1042CD00D007D006D003D002D001D0D0D082D08379
:0542DD00D0F0D0E0323A
:03009B000242E23C
:1042E200C0E0C0F0C083C082C0D075D000C001C0A1
:1042F20002C003C006C0077B017A01790212321C98
:10430200D007D006D003D002D001D0D0D082D08343
:05431200D0F0D0E03204
:0300A300024317FE
:10431700C0E0C0F0C083C082C0D075D000C001C06B
:1043270002C003C006C0077B017A01790412333447
:10433700D007D006D003D002D001D0D0D082D0830E
:05434700D0F0D0E032CF
:03002300023FBFDA
:103FBF00C0E0C0F0C083C082C0D075D000C000C0C8
:103FCF0001C002C003C004C005C006C00730980B73
:103FDF00C2987B017A007902122FD6309908C299C4
:103FEF009002EE7401F0D007D006D005D004D003B4
:103FFF00D002D001D000D0D0D082D083D0F0D0E08A
:01400F00327E
:030043000243E095
:1043E000C0E0C083C082E59A30E009539AFE900095
:1043F000FD7401F0E59A30E109539AFD9002EF74E3
:0944000001F0D082D083D0E0323B
:1040A4004394405393BF43948053937F4392085364
:1040B40091F74392045391FB4392205391DF43922F
:1040C400105391EF4392405391BF5394FB5393FB8E
:1040D4005396FE5395FE53B4EF53B3EF53B4F753D3
:0940E400B3F753B4FB53B3FB2204
:04409F004102930047
:084741007F0A7E007D007C0070
:0347490002434CDC
:0C469000C2C312469CD2C212469CD2C388
:04469C007F42DFFE7C
:0146A00022F7
:074777007F057E0002434CA8
:1045BB0012469520C2037F0022C2C212469C30C213
:0C45CB00037F0022C2C212469C7F012226
:0F46E100C2C312469CC2C2124697D2C202469C66
:08000300124690C2C302469CA4
:0545D700AF041244587E
:1045DC0012469030C208C2C312469C7F0022C2C34E
:0645EC0012469C7F012233
:02445800AE07AD
:10445A007D08AF051DEF6018C2C312469CEE30E717
:10446A0004D2C28002C2C2EE25E0FE12469780E262
:05447A00C2C302469CD4
:104409007E08E4FDD2C212469CAF061EEF6011ED94
:1044190025E0FDC2C312469730C2EE4401FD80E992
:07442900C2C312469CAF055F
:014430002269
:1043B000AE07AC051245BBEF7002FF22AF061244F8
:1043C000581245DCEF70051246E1FF221245D7AFC7
:1043D000031244581245DC1246E11247777F01224E
:04417600AC07AB05E2
:10417A001245BBEF700280091245D7EF700912464B
:10418A00E190029AF0FF22AF031244581245DC1262
:10419A0045BBEC04FF1244581245DC124409AE0731
:0E41AA001200031246E190029A7401F0AF0673
:0141B80022E4
:104010007B017A0279A5900294EBF0A3EAF0A3E980
:10402000F0A3EBF0A3EAF0A3E9F0E4900293F01B15
:104030007D6B7FD01243B07B077D197FD01243B0D8
:104040007B067D1A7FD01243B07B187D1B7FD01278
:0B40500043B07B017D1C7FD00243B019
:102B5F007D3C7FD012417690029BEFF090029AE07D
:102B6F007003022CF67D3B7FD012417690029CEFD2
:102B7F00F090029AE07003022CF690029CE0FE9017
:102B8F00029BE0FDEDFF90028DEEF0A3EFF09002BF
:102B9F0093E0B4011890028DE0F9A3E0FF90029743
:102BAF00E0FBA3E0FAA3E0C98FF012085D90029357
:102BBF00E0702490028DE0FCA3E0FDEC120349E4E9
:102BCF00FBFA792478431202A7900294E0FBA3E06A
:102BDF00FAA3E0F9120A6F7D3E7FD0124176900280
:102BEF009DEFF090029AE07003022CF67D3D7FD0AE
:102BFF0012417690029EEFF090029AE07003022C41
:102C0F00F690029EE0FE90029DE0FDEDFF90028F98
:102C1F00EEF0A3EFF0900293E0FFB4011C90028F4F
:102C2F00E0FCA3E0FD900297E0FBA3E0FAA3E0F93C
:102C3F00900002EC8DF012087CEF702790028FE06D
:102C4F00FCA3E0FDEC120349E4FBFA79247843126C
:102C5F0002A7900294E0FBA3E0FAA3E0F99000042E
:102C6F00120A897D407FD012417690029FEFF0903B
:102C7F00029AE060727D3F7FD01241769002A0EF02
:102C8F00F090029AE060609002A0E0FE90029FE058
:102C9F00FDEDFF900291EEF0A3EFF0A3E0FFB40182
:102CAF001C900291E0FCA3E0FD900297E0FBA3E0F3
:102CBF00FAA3E0F9900004EC8DF012087CEF702776
:102CCF00900291E0FCA3E0FDEC120349E4FBFA79DA
:102CDF002478431202A7900294E0FBA3E0FAA3E04A
:082CEF00F9900008120A892285
:1023EA007D447FD012417690029BEFF090029AE0F2
:1023FA0070030226337D437FD012417690029CEF10
:10240A00F090029AE0700302263390029CE0FE905C
:10241A00029BE0FDEDFF90028DEEF0A3EFF090023B
:10242A0093E0B4011890028DE0F9A3E0FF900297BF
:10243A00E0FBA3E0FAA3E0C98FF012085D900293D3
:10244A00E0702590028DE0FCA3E0FDEC1203497BCD
:10245A00337A33798378411202A7900294E0FBA37E
:10246A00E0FAA3E0F9120A6F7D467FD01241769016
:10247A00029DEFF090029AE070030226337D457FB9
:10248A00D012417690029EEFF090029AE070030219
:10249A00263390029EE0FE90029DE0FDEDFF900241
:1024AA008FEEF0A3EFF0900293E0FFB4011C9002CC
:1024BA008FE0FCA3E0FD900297E0FBA3E0FAA3E023
:1024CA00F9900002EC8DF012087CEF702890028FD0
:1024DA00E0FCA3E0FDEC1203497B337A337983787D
:1024EA00411202A7900294E0FBA3E0FAA3E0F9905C
:1024FA000004120A897D487FD012417690029FEF2C
:10250A00F090029AE070030226337D477FD0124191
:10251A00769002A0EFF090029AE0700302263390C0
:10252A0002A0E0FE90029FE0FDEDFF900291EEF026
:10253A00A3EFF0A3E0FFB4011C900291E0FCA3E03A
:10254A00FD900297E0FBA3E0FAA3E0F9900004EC07
:10255A008DF012087CEF7028900291E0FCA3E0FD58
:10256A00EC1203497B337A33798378411202A790BC
:10257A000294E0FBA3E0FAA3E0F9900008120A89AA
:10258A007D427FD01241769002A1EFF090029AE04C
:10259A0070030226337D417FD01241769002A2EF6A
:1025AA00F090029AE070030226339002A2E0FE90B5
:1025BA0002A1E0FDEDFF90028BEEF0A3EFF0900296
:1025CA0093E0FFB4011C90028BE0FCA3E0FD9002B3
:1025DA0097E0FBA3E0FAA3E0F9900006EC8DF01275
:1025EA00087CEF704490028BE0FEA3E0FFEE339587
:1025FA00E0FDFCEF2490FFEE3433FEE43DFDE43CC5
:10260A00FC120344E4FBFA798C78431202A7E4FB38
:10261A00FA790C78421200AD900294E0FBA3E0FA3A
:0A262A00A3E0F990000C120A8922C7
:102CF7007B027D377FD01243B01247417B017D0AAB
:102D07007F181243B01247417D037F181241769016
:102D1700029BEFF090029AE07003022E887D047FF9
:102D27001812417690029CEFF090029AE07003022D
:102D37002E8890029CE0FE90029BE0FDEDFF900242
:102D47008DEEF0A3EFF0900293E0B4011890028D9E
:102D5700E0F9A3E0FF900297E0FBA3E0FAA3E0C944
:102D67008FF012085D900293E0701A90028DE0FCDC
:102D7700A3E0FDEC120349900294E0FBA3E0FAA361
:102D8700E0F9120A6F7D057F1812417690029DEFD8
:102D9700F090029AE07003022E887D067F18124198
:102DA7007690029EEFF090029AE07003022E8890D0
:102DB700029EE0FE90029DE0FDEDFF90028FEEF097
:102DC700A3EFF0900293E0FFB4011C90028FE0FCA8
:102DD700A3E0FD900297E0FBA3E0FAA3E0F99000DF
:102DE70002EC8DF012087CEF701D90028FE0FCA3BF
:102DF700E0FDEC120349900294E0FBA3E0FAA3E0A4
:102E0700F9900004120A897D077F18124176900213
:102E17009FEFF090029AE060687D087F1812417674
:102E27009002A0EFF090029AE060569002A0E0FEB8
:102E370090029FE0FDEDFF900291EEF0A3EFF0A36B
:102E4700E0FFB4011C900291E0FCA3E0FD90029723
:102E5700E0FBA3E0FAA3E0F9900004EC8DF0120880
:102E67007CEF701D900291E0FCA3E0FDEC1203499A
:102E7700900294E0FBA3E0FAA3E0F9900008120A9D
:022E870089229E
:1046C2008F9DE4F5BDF5BE75BC807F02FE02434CB2
:1044A600EF4488F5BC00000000E5BC30E4FB53BCDB
:1044B600EFAFBD7E00EF7802C333CE33CED8F9FF1F
:0544C600ADBEEF4DFF4B
:0144CB0022CE
:0C46A100C2A01246ADC2C41246ADD2A0A9
:0446AD007F5DDFFE50
:0146B10022E6
:10457D00D2C4D2A01246AD20C4037F0022C2C41201
:10458D0046AD30C4037F0022C2C41246AD7F012266
:084760001246A1D2C40246ADCD
:084768001246A1C2A00246ADF9
:0F46F000C2A01246ADD2C41246A8C2A00246AD67
:0645170025E0FF1244F252
:10451D00C2A01246ADD2C41246A830C408C2A01221
:0D452D0046AD7F0022C2A01246AD7F0122E4
:0244F200AE0713
:1044F4007D08AF051DEF6018C2A01246ADEE30E78F
:1045040004D2C48002C2C4EE25E0FE1246A880E2B2
:02451400C2A043
:014516002282
:10453A007E08E4FDD2C4AF061EEF6011ED25E0FD52
:10454A00C2A01246A830C4EE4401FD80E9C2A0AF61
:01455A00055B
:01455B00223D
:1044CC00AE07AC0512457DEF7002FF22EE124517C8
:1044DC00AF041244F212451DAF031244F212451DF3
:0644EC001247607F01226F
:043F1600AC07AA0545
:103F1A0012457DEF7006900222F0FF22EC1245173F
:103F2A00AF021244F212451D12457DEC25E004123F
:103F3A004519E4FCECC39B501A12453A743F2CF520
:103F4A0082E43402F583EFF0EB146C6003124768E5
:103F5A000C80E11246F01247609002227401F0FFD1
:013F6A002234
:1026340090021F7401F0A37402F0A3743FF07B189E
:102644007D887F76123F16900222E070030227F500
:102654001246AD1246AD7F0A7E0012434C900240F2
:10266400E0FF3395E0EFFE90023FE0FD3395E0FCA0
:10267400E42DFFEE3C90022DF0A3EFF0900242E037
:10268400FF3395E0EFFE900241E0FD3395E0FCE47A
:102694002DFFEE3C900231F0A3EFF0900244E0FFF6
:1026A4003395E0EFFE900243E0FD3395E0FCE42D2A
:1026B400FFEE3C900235F0A3EFF0900246E0FF33CA
:1026C40095E0EFFE900245E0FD3395E0FCE42DFF3C
:1026D400EE3C900223F0A3EFF0900248E0FF339524
:1026E400E0EFFE900247E0FD3395E0FCE42DFFEEC1
:1026F4003C900225F0A3EFF090024AE0FF3395E00E
:10270400EFFE900249E0FD3395E0FCE42DFFEE3C42
:10271400900227F0A3EFF090024CE0FF3395E0EF36
:10272400FE90024BE0FD3395E0FCE42DFFEE3C907F
:102734000229F0A3EFF090024EE0FF3395E0EFFEA4
:1027440090024DE0FD3395E0FCE42DFFEE3C900259
:102754002BF0A3EFF0900250E0FF3395E0EFFE90F2
:10276400024FE0FD3395E0FCE42DFFEE3C90022F98
:10277400F0A3EFF0900252E0FF3395E0EFFE9002F9
:1027840051E0FD3395E0FCE42DFFEE3C900233F084
:10279400A3EFF0900254E0FF3395E0EFFE90025374
:1027A400E0FD3395E0FCE42DFFEE3C900237F0A30E
:1027B400EFF0900256E0FF3395E0EFFE900255E013
:1027C400FD3395E0FCE42DFFEE3C900239F0A3EFDD
:1027D400F07B277DF47F761244CC7F0A7E0012437F
:1027E4004C7BA07DF57F761244CC7F0A7E00124399
:0227F4004C2275
:100CBC0090021F7401F0A37402F0A3743FF07B0642
:100CCC007DF77F76123F16900240E0FF3395E0FEF1
:100CDC00FDFCE4FB7A01F9F81208A9C004C005C0B8
:100CEC0006C00790023FE0FF3395E0FEFDFCE4FBFD
:100CFC00FA7901F81208A9D003D002D001D000EF84
:100D0C002BFBEE3AFAED39F9EC38F8900241E0544D
:100D1C00F0FF3395E0FEFDFCEB2FFFEA3EFEE93DD4
:100D2C00FDE83CFCE47B10FAF9F81241329001EF3B
:100D3C00120AAD900243E0FF3395E0FEFDFCE4FBAC
:100D4C007A01F9F81208A9C004C005C006C00790C2
:100D5C000242E0FF3395E0FEFDFCE4FBFA7901F87A
:100D6C001208A9D003D002D001D000EF2BFBEE3A31
:100D7C00FAED39F9EC38F8900244E054F0FF339571
:100D8C00E0FEFDFCEB2FFFEA3EFEE93DFDE83CFCFE
:100D9C00E47B10FAF9F81241329001F3120AAD908B
:100DAC0001F3E0FCA3E0FDA3E0FEA3E0FFEC1203E3
:100DBC0044E4FBFA798078461202A7C004C005C04F
:100DCC0006C00790022DE0FCA3E0FDE4120349E409
:100DDC00FBFA798078441202A7A804A905AA06ABED
:100DEC0007D007D006D005D0041200A9C004C00556
:100DFC00C006C007900231E0FCA3E0FDEC120349F1
:100E0C00D003D002D001D00012019E9001F7120A3B
:100E1C00AD9001F3E0FCA3E0FDA3E0FEA3E0FFEC4A
:100E2C00120344E4FBFAF978481202A7C004C00587
:100E3C00C006C00790022DE0FCA3E0FDE4120349BC
:100E4C00E4FBFAF978461202A7A804A905AA06AB96
:100E5C0007D007D006D005D0041200A9C004C005E5
:100E6C00C006C0079001F3E0FCA3E0FDA3E0FEA3E5
:100E7C00E0FFEC120344E4FBFAF978481202A7C035
:100E8C0004C005C006C00790022DE0FCA3E0FDE401
:100E9C00120349E4FBFAF978461202A7A804A90543
:100EAC00AA06AB07D007D006D005D0041200A9D0F3
:100EBC0003D002D001D00012019EC004C005C006B0
:100ECC00C007900235E0FCA3E0FDEC120349D0030F
:100EDC00D002D001D00012019E9001FB120AAD90FD
:100EEC0001FBE0FCA3E0FDA3E0FEA3E0FF9001F713
:100EFC00E0F8A3E0F9A3E0FAA3E0FB1200AD1203C3
:100F0C0082EC1203449001FF120AAD9001FBE0FC4D
:100F1C00A3E0FDA3E0FEA3E0FF9001F7E0F8A3E05F
:100F2C00F9A3E0FAA3E0FB1200ADE4FBFA79A07898
:100F3C00451202A7900203120AAD7F667E667DE61B
:100F4C007C3F900203E0F8A3E0F9A3E0FAA3E0FBF6
:100F5C0012019EE4FBFAF978421200AD900257128E
:100F6C000AADE4FBFAF978409001FFE0FCA3E0FD48
:100F7C00A3E0FEA3E0FF1202A7E4FBFA797A78C79C
:100F8C001200AD9001F7120AAD90022FE0FCA3E025
:100F9C00FDEC120349C004C005C006C0079001F760
:100FAC00E0FCA3E0FDA3E0FEA3E0FFA804A905AAD2
:100FBC0006FB12019ED003D002D001D00012019E7C
:100FCC00E4FBFAF978471202A79001FB120AAD90E4
:100FDC0001FBE0F8A3E0F9A3E0FAA3E0FBC000C03A
:100FEC0001C002C00390022BE0FCA3E0FDEC120355
:100FFC00499001F7E0F8A3E0F9A3E0FAA3E0FB12B3
:10100C00019EE4FBFAF9784012019ED003D002D085
:10101C0001D0001200AD9001FB120AAD900229E044
:10102C00FCA3E0FDEC120349E4FBFA79807847124B
:10103C00019EC004C005C006C007E4FBFA798078A5
:10104C00409001FBE0FCA3E0FDA3E0FEA3E0FF1257
:10105C0002A7D003D002D001D0001200AD9001FB4A
:10106C00120AAD900227E0FCA3E0FDEC12034990BC
:10107C0001F7E0F8A3E0F9A3E0FAA3E0FB12019E6C
:10108C009001F7E0F8A3E0F9A3E0FAA3E0FB12016A
:10109C009EE4FBFAF978491202A7C004C005C00609
:1010AC00C007900225E0FCA3E0FDEC12034990017F
:1010BC00F7E0F8A3E0F9A3E0FAA3E0FB12019ED05D
:1010CC0003D002D001D0001200ADE4FBFAF978494C
:1010DC001202A79001F7120AADE4FBFAF9784790D7
:1010EC0001F7E0FCA3E0FDA3E0FEA3E0FF1202A7E2
:1010FC00E4FBFA7980783F1200ADC004C005C0064D
:10110C00C007900223E0FCA3E0FDE4120349D003E6
:10111C00D002D001D00012019E9001F7120AAD90BE
:10112C0001EFE0FCA3E0FDA3E0FEA3E0FFEC120363
:10113C0044A804A905AA06AB07E4FFFE7D807C4900
:10114C001200A9900207120AADE4FBFA79807845E7
:10115C009001FBE0FCA3E0FDA3E0FEA3E0FF120284
:10116C00A7A804A905AA06AB07900207E0FCA3E018
:10117C00FDA3E0FEA3E0FF1200A97B007A5079C327
:10118C00784512019E9001F7E0F8A3E0F9A3E0FA8C
:10119C00A3E0FB1202A7900207120AAD900239E0FD
:1011AC00FCA3E0FDEC120349900207E0F8A3E0F980
:1011BC00A3E0FAA3E0FB12019E900207E0F8A3E083
:1011CC00F9A3E0FAA3E0FB12019EE4FBFAF9784FD5
:1011DC001202A79001F7120AAD900237E0FCA3E0CF
:1011EC00FDEC120349900207E0F8A3E0F9A3E0FA42
:1011FC00A3E0FB12019EE4FBFAF978471202A790D8
:10120C0001FB120AAD900233E0FCA3E0FDEC1203EB
:10121C0049C004C005C006C0079001FBE0FCA3E078
:10122C00FDA3E0FEA3E0FF9001F7E0F8A3E0F9A333
:10123C00E0FAA3E0FB1200ADD003D002D001D00045
:10124C001200ADE4FBFA798078411202A7900207F4
:10125C00E0F8A3E0F9A3E0FAA3E0FB1200AD9002E2
:04126C003B020AAD8A
:1000A6000203EEE86480F8E933E83360110460F097
:1000B600ED33EC337009E8FCE9FDEAFEEBFF2204C0
:1000C60060DED3EB9FEA9EE99DE8C2E78CF0C2F7BB
:1000D60095F0400CE8CCF8E9CDF9EACEFAEBCFFB87
:1000E6001203B985D0F05804700320D5B3E8047024
:1000F600075002B2D50203F892D5EC0460F7E4CCBF
:10010600C0E0C398F8603B94186008400DD0E0FB4F
:100116000203D0E4FBFAC9FC8028E830E406E4C90F
:10012600FBE4CAFCE830E305E4C9CACBFCE85407A3
:100136006010F8C3E913F9EA13FAEB13FBEC13FCAE
:10014600D8F130F52FC3E49CFCEF9BFFEE9AFEED51
:1001560099FDD0E0FBEF4E4D4C701222DB030203FB
:10016600F5EC2CFCEF33FFEE33FEED33FDED30E71F
:10017600EB0203D0EF2BFFEE3AFEED39FDD0E0FBAC
:1001860050130BBB00030203F8ED13FDEE13FEEF55
:0801960013FFEC13FC0203D07F
:10019E00EC4D6011E8497017ED33EC3304600DE45B
:1001AE00FCFFFEFD22E933E8330470F80203EE1281
:1001BE0003B958046009E4CC248150062850090282
:1001CE0003F82840030203F5C0E0EB4A7044B980FF
:1001DE0006D0E0FB0203E4EF4E701CBD8008EBFF7F
:1001EE00EAFEE9FD80EBE98DF0A4FEE5F002028760
:1001FE00E9CDF9EAFEEBFFEF89F0A4FCE5F0CE893C
:10020E00F0A42EFFE435F0CD89F0A42DFEE435F0F8
:10021E008067EF4E7005BD80D780C3EF8BF0A4AC26
:10022E00F0EE8BF0A42CFCE435F0F8EF8AF0A42C61
:10023E00E5F038FCE433CB8DF0A42CFCE5F03BF874
:10024E00EE8AF0A42CFCE5F038F8E433CF89F0A464
:10025E002CFCE5F038CF3400CE89F0A42FFFE5F06A
:10026E003EFEE433C98DF0A42EFEE5F039CD8AF0C2
:10027E00A42FFFE5F03EFEE43DFD33D0E0FB50073A
:10028E000BBB000F0203F8EC2CFCEF33FFEE33FE3A
:06029E00ED33FD0203D068
:1002A4000203F8EC5D046005E8590470030203EEF0
:1002B4001203B9580460F6EC4860F2EC7004FDFED9
:1002C400FF22C860DB2481C85009C398600250062D
:1002D4000203F59850CAF582E9294B4A7005AB82AE
:1002E4000203E475F0007C1A7880C3EF9BEE9AED6C
:1002F40099400DC3EF9BFFEE9AFEED99FDE842F0A5
:10030400DC23ACF0D0E0FFD0E0FED0E0FDAB8220F7
:10031400E7101BEB60BAEC2CFCEF33FFEE33FEED81
:1003240033FD0203D0E803F830E705C0F075F000B0
:10033400EF2FFFEE33FEED33FD40B830E7C280AA65
:1003440075F020800E75F010800575F0087D007E34
:10035400007F003392D530D5031209C6EC33401028
:10036400EF33FFEE33FEED33FDEC33FCD5F0ED223D
:0E037400E5F0247EA2D513CC92E7CDCEFF2279
:10038200EDD2E7CD33EC3392D524814006E4FFFE73
:10039200FDFC22FCE4CFCECDCC24E0501174FF80D2
:1003A200EDC3CC13CCCD13CDCE13CECF13CF04706F
:0703B200F030D5DE0209C6A0
:101BEB00E50824F2F582E43401F583E00508229040
:101BFB0001EF3007039001F2E475F001120B0E02B6
:101C0B0006AB2000E97F2ED2008018EF540F2490F2
:101C1B00D43440D4FF30040BEF24BFB41A0050036C
:101C2B002461FFE50960021509050CE50C7002053E
:101C3B000B30070E9001EFE475F001120B0EEF0263
:101C4B00072402447F7403D2078003E4C207F5081C
:101C5B009001EF120B25E4F509F50BF50CE5096086
:101C6B00077F20121C2E80F5750AFFC201C200C22D
:101C7B0002C203C205C206C208121BFAFF700D3066
:101C8B0007057F00121C3FAF0CAE0B22B4255FC2C1
:101C9B00D5C204121BFAFF24D0B40A00501A75F0F7
:101CAB000A780930D50508B6FF0106C6A426F6202A
:101CBB00D5047002D20380D924CFB41A00EF50049C
:101CCB00C2E5D204021F31D20180C6D20080C0D23D
:101CDB000280BCD2D580BAD20580B47F20121C2ED4
:101CEB002002077401B5090040F1121BEBFF121C17
:101CFB002E021C68D208D2068095121BEBFB121B1E
:101D0B00EBFA121BEBF94A4B7006792F7A207BFF0B
:101D1B0020022EE509602A7E008E82758300120652
:101D2B00C460060EEE650A70F0C2D5EBC0E0EAC0E7
:101D3B00E0E9C0E0EE121F92D0E0F9D0E0FAD0E07B
:101D4B00FB1206ABFF60AAEBC0E0EAC0E0E9C0E023
:101D5B00121C2ED0E02401F9D0E03400FAD0E0FBC5
:101D6B00E50A0460DCD50AD98087D20280A2121F53
:101D7B007460F7E50A700104120403A90A600DE50B
:101D8B000A600914F50A12201CEF60F3EA30E7022F
:101D9B00F404C3995079EAF4250A0430E701E4040A
:101DAB00F50A800D121F7460C1EA050A250A120498
:101DBB0003EA90021EF030E701E4250A04D50A0479
:101DCB0020050114121F92E4C0E012201C90021E89
:101DDB00E0601320E70714F0121C16802204F0D0E9
:101DEB00E014C0E07F00121C16E50A6007121C0D00
:101DFB00150A800B300503121C0DD0E0021C68D0B5
:101E0B00E00480C4121F74609EE50A041204039060
:101E1B00021EEAF0E50A2005026001042404121FE9
:011E2B009224
:101E2C0074FF04C0E012201C121C16E50A200502E7
:101E3C006003121C0DD0E0B50AE87F45121C2090FF
:101E4C00021EE07F2B30E7047F2DF404C0E0121C4F
:101E5C002ED0E075F00A84C0F0121C17D0E0121CD2
:101E6C0017021C68791080027908C206C208800823
:101E7C00D2D5790A8004790AC2D5E50A047002F534
:101E8C000AE4FAFDFEFF121BEBFC7B082001131287
:101E9C001BEBFD7B1030000A121BEBFE121BEBFF41
:101EAC007B20EC3382D592D55013C3E43000069FCF
:101EBC00FFE49EFEE42001039DFDE49CFCE4CBF8D2
:101ECC00C201EC700CCFCECDCCE824F8F870F380C6
:101EDC0017C3EF33FFEE33FEED33FDEC33FCEB3386
:101EEC00FB994002FB0FD8E9EB300105F8D0E0C4B8
:101EFC0048B201C0E00AEC4D4E4F78207B0070C216
:101F0C00EAB50A0040BCC0E0121F94D0F0D0E0202B
:101F1C000104C4C0E0C4B201C0F0121C17D0F0D54B
:101F2C00F0EB021C68120B9D1D05531E70581CD63D
:101F3C004C1CD2421E744F1E7C441E7C491CEB432D
:101F4C001E82551DAF461E0F451D7947204F501C54
:101F5C00DA2D1CDE2E1D012B1CE2231CFF20203849
:101F6C002A1C9A4800001CF9E50AB4FF03750A06FE
:101F7C00121BEBFC121BEBFD121BEBFE121BEBFFFF
:101F8C00900217020440790AA2D5200314300509E7
:101F9C00B910020404B9080104A2D52006025001AC
:101FAC00042002689202B509005034C0E07F203052
:101FBC0003197F30A20272067205500F121FEBC27A
:101FCC0002C206C205C2087F30800F300503E9C08B
:101FDC00E0121C2E300503D0E0F9D0E0B509CC306E
:101FEC0005177F30B9100C121C2E7F583004077F58
:101FFC00788003B90803121C2E3002057F2D021CB9
:10200C002E7F202008F87F2B2006F322920280CF0F
:10201C007F00B40700500B2417F582E43402F583DB
:10202C00E0FF22286E756C6C2900D201121BEB307C
:10203C0001F8C201780930D50108F6021C9A2D501E
:10204C00434958121BEB2403B405004001E49020D3
:10205C004A93121C1F743A121C1FD20375090402F6
:02206C001E70E4
:1003B900E9D2E7C933E833F892D5EDD2E7CD33EC8A
:0703C90033FC5002B2D52203
:1003D000EC30E7100FBF000C0EBE00080DBD00048E
:1003E0000BEB6014A2D5EB13FCED92E7FD2274FF3A
:1003F000FCFDFEFF22E480F8A2D574FF13FC7D8093
:03040000E480EFA6
:10040300F920E73624F950037907E4F42402FBE5E5
:1004130082158270021583DBF6E024FB501BE96032
:1004230014E4F0E582158270021583E004F0B40A47
:0D04330008E4F0D9EE7401F00A22C2D522CF
:10044000ED33EC3392D5FA602AB4FF33EDC2E77B8B
:10045000FF60067A047965E4227A04796E20D50477
:100460007A047969224E614E002B494E46002D498F
:100470004E4600E47A08F0A3DAFC7B00740722C041
:1004800083C082ECC0E0EDC0E0EEC0E0EFC0E0EA87
:1004900075F010A4CAABF075F04DA42BFBE435F059
:1004A000FCEA2410FAEB34C5FBEC34D9FCEDC2E7CE
:1004B000FF75F056A4F42411C5F0F434C58FF0A4F0
:1004C0002AE5F03BE43CF020E714120575D0E0FF8C
:1004D000D0E0FED0E0FDD0E0FC1202A78014F404CE
:1004E000120575D0E0FFD0E0FED0E0FDD0E0FC12B8
:1004F000019ED082D083E0FAEDD2E7CD33EC3324F5
:1005000082FBE4C3CF33CFCE33CECD33CD33DBF359
:100510007B0775F00A846004F0A31B0AE5F0F0A3E2
:100520008FF0740AA4FFACF08EF0740AA42CFEAC19
:10053000F050010C8DF0740AA42CFDE435F0F0A30A
:05054000DBDE74072260
:100545003F8000004120000042C80000447A0000BE
:10055500461C400047C35000497424004B18968040
:100565004CBEBC205A0E1BCA6753C21C749DC5AE37
:10057500FB60065407601C23231205A3EB54386067
:100585000912058F12059E12019EECF8EDF9EEFA9F
:10059500EFCB22EB12059E80F1543803241C900505
:1005A50045FE93FC0EEE93FD0EEE930ECE93FF22C9
:03000000023B724E
:0C3B7200787FE4F6D8FD758121023BB994
:1005B500E709F608DFFA8046E709F208DFFA803E28
:1005C50088828C83E709F0A3DFFA8032E309F60815
:1005D500DFFA8078E309F208DFFA807088828C837D
:1005E500E309F0A3DFFA806489828A83E0A3F60831
:1005F500DFFA805889828A83E0A3F208DFFA804C0B
:1006050080D280FA80C680D4806980F280338010E1
:1006150080A680EA809A80A880DA80E280CA80334A
:1006250089828A83ECFAE493A3C8C582C8CCC583C2
:10063500CCF0A3C8C582C8CCC583CCDFE9DEE78092
:100645000D89828A83E493A3F608DFF9ECFAA9F011
:10065500EDFB2289828A83ECFAE0A3C8C582C8CC67
:10066500C583CCF0A3C8C582C8CCC583CCDFEADE80
:10067500E880DB89828A83E493A3F208DFF980CCE2
:1006850088F0EF60010E4E60C388F0ED2402B404DB
:100695000050B9F582EB2402B4040050AF23234582
:0606A5008223900605739C
:1006AB00BB010689828A83E0225002E722BBFE024D
:0906BB00E32289828A83E4932280
:1006C400BB010CE58229F582E5833AF583E02250EB
:1006D40006E92582F8E622BBFE06E92582F8E22235
:0D06E400E58229F582E5833AF583E493224F
:1006F100BB010FF8E58229F582E5833AF583E0280D
:10070100F0225009C58229F8E58226F622BBFE09AE
:10071100C58229F8E22582F222F8EA2583F583E9E8
:03072100932822F8
:10072400BB010689828A83F0225002F722BBFE01B4
:02073400F322AE
:10073600F8BB010DE58229F582E5833AF583E8F0F9
:10074600225006E92582C8F622BBFE05E92582C8A5
:02075600F2228D
:10075800BC000BBE0029EF8DF084FFADF022E4CC85
:10076800F875F008EF2FFFEE33FEEC33FCEE9DEC4E
:10077800984005FCEE9DFE0FD5F0E9E4CEFD22ED94
:10078800F8F5F0EE8420D21CFEADF075F008EF2FDE
:10079800FFED33FD4007985006D5F0F222C398FDCF
:0507A8000FD5F0EA226C
:1007AD00BB010A89828A83E0F5F0A3E02250068717
:1007BD00F009E71922BBFE07E3F5F009E3192289D9
:0B07CD00828A83E493F5F0740193220C
:1007D800BB0110E58229F582E5833AF583E0F5F05F
:1007E800A3E0225009E92582F886F008E622BBFE3C
:1007F8000AE92582F8E2F5F008E222E5832AF58382
:08080800E993F5F0A3E9932246
:10081000BB010DC58229C582C5833AC583020BEF92
:100820005011C58229F808E5F026F618F5F0E582A2
:1008300036F622BBFE11C58229F808E225F0F5F054
:10084000F218E23582F222F8E58229F582E5832A60
:0D085000F58374019325F0F5F0E493382250
:10085D00BB010A89828A83F0E5F0A3F0225006F7E6
:0F086D0009A7F01922BBFE06F3E5F009F31922E3
:10087C00F8BB0111E58229F582E5833AF583E8F0AE
:10088C00E5F0A3F0225009E92582C8F608A6F0226B
:0D089C00BBFE09E92582C8F2E5F008F22252
:1008A900E88FF0A4CC8BF0A42CFCE98EF0A42CFCEE
:1008B9008AF0EDA42CFCEA8EF0A4CDA8F08BF0A46C
:1008C9002DCC3825F0FDE98FF0A42CCD35F0FCEBCB
:1008D9008EF0A4FEA9F0EB8FF0A4CFC5F02ECD3990
:0F08E900FEE43CFCEAA42DCE35F0FDE43CFC22FD
:1008F80075F008758200EF2FFFEE33FECD33CDCCB7
:1009080033CCC58233C5829BED9AEC99E582984039
:100918000CF582EE9BFEED9AFDEC99FC0FD5F0D616
:10092800E4CEFBE4CDFAE4CCF9A88222B800C1B940
:100938000059BA002DEC8BF084CFCECDFCE5F0CB7E
:10094800F97818EF2FFFEE33FEED33FDEC33FCEBB7
:1009580033FB10D703994004EB99FB0FD8E5E4F972
:10096800FA227818EF2FFFEE33FEED33FDEC33FC5F
:10097800C933C910D7059BE99A4007EC9BFCE99A53
:10098800F90FD8E0E4C9FAE4CCFB2275F010EF2F98
:10099800FFEE33FEED33FDCC33CCC833C810D70798
:1009A8009BEC9AE899400AED9BFDEC9AFCE899F8D3
:0E09B8000FD5F0DAE4CDFBE4CCFAE4C8F92266
:10413200C2D5E830E70FB2D5E4C39BFBE49AFAE4B8
:1041420099F9E498F8EC30E717B2D51241681209F0
:1041520034E4C39BFBE49AFAE499F9E498F8800307
:1041620012093430D50DE4C39FFFE49EFEE49DFDA9
:04417200E49CFC22AB
:0E09C600C3E49FFFE49EFEE49DFDE49CFC2242
:1009D400EB9FF5F0EA9E42F0E99D42F0E89C45F079
:0109E40022F0
:1009E500E8600FECC313FCED13FDEE13FEEF13FFF0
:0309F500D8F12214
:1009F800E86010ECA2E713FCED13FDEE13FEEF1315
:040A0800FFD8F02201
:100A0C00E8600FEFC333FFEE33FEED33FDEC33FC48
:030A1C00D8F122EC
:100A1F00BB010789828A83020C115005E9F8020C89
:100A2F0005BBFE05E9F8020C1D89828A83020C2999
:100A3F00BB010DE58229F582E5833AF583020C119E
:100A4F005007E92582F8020C05BBFE07E92582F85D
:100A5F00020C1DE58229F582E5833AF583020C2904
:100A6F00BB010789828A83020AAD5005E9F8020C9F
:0A0A7F0039BBFE05E9F8020C452220
:100A8900BB010DE58229F582E5833AF583020AADBA
:100A99005007E92582F8020C39BBFE07E92582F8DF
:040AA900020C4522D4
:0C0AAD00ECF0A3EDF0A3EEF0A3EFF022BC
:100AB900A8828583F0D083D082120AD0120AD0127C
:100AC9000AD0120AD0E473E493A3C583C5F0C583A1
:100AD900C8C582C8F0A3C583C5F0C583C8C582C887
:010AE90022EA
:100AEA00BB010DE58229F582E5833AF583020AB94D
:100AFA005007E92582F8020C51BBFE07E92582F866
:040B0A00020C6A224D
:100B0E00F8E0FBA3A3E0F925F0F0E5821582700270
:070B1E001583E0FA38F02214
:090B2500EBF0A3EAF0A3E9F022D1
:100B2E00BB010789828A83020C955005E9F8020CF5
:100B3E0083BBFE05E9F8020C9E89828A83020CB003
:100B4E00BB011A89828A83D0F0D0E0F8D0E0F9D0C8
:100B5E00E0FAD0E0FBE8C0E0C0F0020B255016E949
:100B6E00F8D083D082D0E0F9D0E0FAD0E0FBC0829A
:100B7E00C083020C8CBBFE16E9F8D083D082D0E085
:0F0B8E00F9D0E0FAD0E0FBC082C083020CA722AE
:100B9D00D083D082F8E4937012740193700DA3A3E7
:100BAD0093F8740193F5828883E4737402936860FB
:060BBD00EFA3A3A380DFFB
:10447F00EFB40A07740D12448A740A309811A89980
:10448F00B8130CC2983098FDA899C298B811F6309D
:07449F0099FDC299F5992275
:100BC300EF4E6012EF60010EEDBB010B89828A8349
:100BD300F0A3DFFCDEFA2289F05007F709DFFCA956
:0C0BE300F022BBFEFCF309DFFCA9F022AD
:103B7E000227F6E493A3F8E493A34003F68001F240
:103B8E0008DFF48029E493A3F85407240CC8C33348
:103B9E00C4540F4420C8834004F456800146F6DF17
:103BAE00E4800B010204081020408090405BE47E0C
:103BBE00019360BCA3FF543F30E509541FFEE4930C
:103BCE00A360010ECF54C025E060A840B8E493A3D3
:103BDE00FAE493A3F8E493A3C8C582C8CAC583CAFE
:103BEE00F0A3C8C582C8CAC583CADFE9DEE780BEB6
:0140A300001C
:100BEF00C5F0F8A3E028F0C5F0F8E5821582700291
:060BFF001583E038F0222E
:0C0C0500E6FC08E6FD08E6FE08E6FF221B
:0C0C1100E0FCA3E0FDA3E0FEA3E0FF2256
:0C0C1D00E2FC08E2FD08E2FE08E2FF2213
:100C2900E493FC740193FD740293FE740393FF2211
:0C0C3900ECF608EDF608EEF608EFF622E7
:0C0C4500ECF208EDF208EEF208EFF222EB
:100C5100D083D082E493F608740193F6087402936A
:090C6100F608740393F6740473A1
:100C6A00D083D082E493F208740193F20874029359
:090C7A00F208740393F274047390
:090C8300E6FB08E6FA08E6F92296
:090C8C00EBF608EAF608E9F6228D
:090C9500E0FBA3E0FAA3E0F92260
:090C9E00E2FB08E2FA08E2F92287
:090CA700EBF208EAF208E9F2227E
:0C0CB000E493FB740193FA740293F922A0
:00000001FF
